S0160000726C37386931635F7265616465722E73726563F2
S31500000000F8890020496700005D650000456700002B
S31500000010456700004567000045670000456700002A
S31500000020000000000000000000000000D10B0000EE
S315000000304567000000000000E90B0000510C0000BD
S31500000040D5560000E955000079580000BD5800005B
S31500000050451F00006D1F0000A51F0000C91F0000FE
S31500000060000000000000000000000000000000008A
S31500000070000000000000000000000000000000007A
S31500000080000000000000000000000000000000006A
S31500000090000000000000000000000000000000005A
S315000000A0000000000000000000000000000000004A
S315000000B0000000000000000000000000000000003A
S315000000C0000000000000000000000000000000002A
S315000000D0000000000000000000000000000000001A
S315000000E0000000000000000000000000000000000A
S315000000F000000000000000000000000000000000FA
S3150000010000000000000000000000000000000000E9
S3150000011000000000000000000000000000000000D9
S3150000012000000000000000000000000000000000C9
S3150000013000000000000000000000000000000000B9
S3150000014000000000000000000000000000000000A9
S315000001500000000000000000000000000000000099
S315000001600000000000000000000000000000000089
S315000001700000000000000000000000000000000079
S315000001800000000000000000000000000000000069
S315000001900000000000000000000000000000000059
S315000001A00000000000000000000000000000000049
S315000001B00000000000000000000000000000000039
S315000001C0FFFFFFFFFFFFFFFFFFFFFFFFFFFFFFFF39
S315000001D0FFFFFFFFFFFFFFFFFFFFFFFFFFFFFFFF29
S315000001E0FFFFFFFFFFFFFFFFFFFFFFFFFFFFFFFF19
S315000001F0FFFFFFFFFFFFFFFFFFFFFFFFFFFFFFFF09
S3150000020010B5054C237833B9044B13B1044800E00C
S3150000021000BF0123237010BDC805002000000000A8
S31500000220D8F0000008B5034B1BB10349034800E0B2
S3150000023000BF08BD00000000CC050020D8F000007B
S3150000024010B5044605F004FF00283CD1A368596E9A
S31500000250532303FB01F12B4BA3FB01314909204634
S3150000026005F00AFF002834D1A368596E01EB81011D
S3150000027001EB8101234BA3FB0131002249092046F2
S3150000028005F096FD58BBA368596E01EB8101C1EBE1
S3150000029001111C4BA3FB013101224909204605F03F
S315000002A087FD10BB184B9B685A6B072161F304024C
S315000002B05A635A6B1B2161F314425A63204605F0B8
S315000002C0EBFCC0B910BD114B114A1621114806F0BE
S315000002D0E9F80E4B0E4A1A210E4806F0E3F80B4BCE
S315000002E00B4A1E210B4806F0DDF8084B084A21216F
S315000002F0084806F0D7F8054B054A2821054806F0B8
S31500000300D1F800BF1F85EB51101F002054D000000C
S3150000031084D000006CD0000090F90630DBB2024AAF
S31500000320D05C0844704700BFCCD1000038B5A1F1BD
S315000003300B030A2B10D80446FFF7EEFF05462F28BD
S315000003400CD8084B53F83010204609F05FFA38B93C
S31500000350044800EBC50000E0024838BD0148FCE750
S315000003600048FAE7CCD200002DE9F04105460E46DA
S3150000037000273C463B4609E001342B577C2B01D035
S31500000380B442F9D3B442C0F080800423042B00F0B9
S315000003908680032BFAD801A252F823F07B030000D3
S315000003A0AF030000FB0300007904000001342B5763
S315000003B0413BDBB2192B03D9B442F7D3002107E046
S315000003C0002105E0B4420AD2364A535401310134C1
S315000003D02B57202BF6D1621CAA56202AF2D131487F
S315000003E000234354FFF7A2FF07460379112B4ED093
S315000003F0B4424ED30423C9E701342957CBB2A3F143
S315000004004102D2B2192A09D9303BDBB2092B07D9EE
S315000004102D2907D0B442EFD300220BE0002209E0D9
S31500000420002207E0002205E0B4420AD21E498B549E
S31500000430013201342B57202BF6D1611C69567C29D9
S31500000440F2D1194B0021995497F80480B8F1100F96
S315000004500CD0164B03EB8808002113480AF00EF85F
S3150000046088ED000AB44216D304238FE719461048D4
S3150000047009F0D6F9F6E701342B570D2B01D0B4421B
S31500000480F9D3B44209D3042380E701237EE703238B
S315000004907CE702237AE7032378E7002376E703481D
S315000004A0BDE8F081E4050020540600200406002083
S315000004B044060020022800D0704708B5024B596850
S315000004C0024805F099FB08BDD8D700008016002029
S315000004D010B5124C124B9C421ED2012221461148E5
S315000004E004F0F0FD60B94FF0FF310F4B186806F0CD
S315000004F0F3FE01280AD1322007F07EFD0134E9E738
S315000005000A4B0B4A6C210B4805F0CCFF0A4B084AF4
S315000005106F21084805F0C6FF10BD00BF88D7000050
S3150000052090D70000941F00205C1800204CD40000D7
S31500000530B0D7000060D4000080D4000010B51A4B7C
S3150000054000221A600CE04FF0FF33042217480144E2
S315000005501748006807F074F9134A136803441360D8
S31500000560114B19680329EED9104C00E0013404221E
S315000005702146104808F098FC88B1231D0A4A1268E3
S315000005800A4911448B42F1D9012304220848006824
S3150000059007F056F9044A136803441360E7E7034B70
S315000005A0E41A014B1C6010BD740600207C0A002072
S315000005B0A818002080D700002DE9F04F2DED089BEC
S315000005C0A3B046688768D0F80C80D0F81090D0F8B1
S315000005D014B08469C56900F1400A90ED089AD0ED1F
S315000005E0099A90ED0AAAD0ED0BAA90ED0CBAD0EDBF
S315000005F00DBA90ED0ECAD0ED0FCA006808F0F6FBF2
S31500000600CDE920011CEE900A08F0F0FBCDE91E01B1
S315000006101CEE100A08F0EAFBCDE91C011BEE900A5D
S3150000062008F0E4FBCDE91A011BEE100A08F0DEFB28
S31500000630CDE918011AEE900A08F0D8FBCDE91601AB
S315000006401AEE100A08F0D2FBCDE9140119EE900A51
S3150000065008F0CCFBCDE9120119EE100A08F0C6FB32
S31500000660CDE91001CDF838A0284608F0BFFBCDE94A
S315000006700C01204608F0BAFBCDE90A01584608F0FD
S31500000680B5FBCDE90801484608F0B0FBCDE9060107
S31500000690404608F0ABFBCDE90401384608F0A6FB5E
S315000006A0CDE90201304608F0A1FBCDE90001DDE904
S315000006B020231649164809F089F8013840F2FE331E
S315000006C098420FD8124C204609F0B2F80246802311
S315000006D02146104804F05EFC50B123B0BDEC089BE7
S315000006E0BDE8F08F0C4B0D4A96210D4805F0DAFE59
S315000006F04FF0FF310B4B186806F0EEFD0128ECD0E9
S31500000700094B064AA021064805F0CCFE94D4000009
S3150000071078060020E41E00204CD7000094D7000085
S3150000072060D400001018002080D4000008B51549D8
S31500000730154804F03BFE28B1144B154A26211548EE
S3150000074005F0B0FE14491548FFF77AFD144915481F
S3150000075004F02CFB28B10D4B0D4A2D210D4805F058
S31500000760A1FEFFF7EBFEFFF7B3FEFFF7E7FE0E4B2A
S3150000077019680E48FFF7F8FD0D4B1860FFF71CFFD0
S31500000780F1E700BF3CDB0000941F00204CD40000C2
S31500000790C0D7000060D40000C8DA0000101F002097
S315000007A084DA0000E41E0020740600207C0A002083
S315000007B0780A002000B583B0002301930379042B47
S315000007C00ED0022B15D0019B3BB10D4B4FF0805242
S315000007D05A60BFF34F8FBFF36F8F03B05DF804FB12
S315000007E001AB012200F108010648006806F0D6FFB9
S315000007F0E9E701A9044B186806F058FCE3E700BFD7
S3150000080000ED00E0A81800205C18002000B583B0B9
S3150000081004E007221D491E4804F0ECFB4FF0FF32AE
S3150000082069461C4B186806F0A5FC0128F6D1BDF8F0
S31500000830003003F47F43B3F5005FEAD0B3F5045FFD
S315000008400AD0B3F5085F0DD00021114804F01EFC54
S315000008500028E3D000BFE1E707220C490C4804F06A
S31500000860EFFBDBE700210A4804F010FC0028D5D195
S31500000870BDF80220084B198862F300011980C2F303
S315000008804002198862F341011980C7E7FC02002083
S31500000890E41E0020881600207C16002008B5837907
S315000008A0013B092B2BD8DFE803F0282A27282A2822
S315000008B01A260E050021134B186806F0F7FB0128CF
S315000008C01AD100BF18E000231A4600F108010E48AD
S315000008D0006806F079FB01280ED100BF0CE000236A
S315000008E01A4600F10C010948006806F06DFB012864
S315000008F002D100BF00E000BF08BD00BFFCE700BF9B
S31500000900FAE700BF10180020741700208816002090
S3150000091000B583B003230093264B00221146012025
S3150000092006F0D6F9244B186000282FD0234B0093ED
S31500000930234B002201214FF4807006F0C1FE214BAB
S31500000940186038B3032300931F4B00221146012081
S3150000095006F0BEF91D4B186000B3002300931C4B34
S315000009601C4A0421142006F0B3F91B4B1860C8B1C9
S3150000097000230093194B1A4A0821142006F0A8F9FF
S31500000980184B186090B103B05DF804FB002100F02D
S315000009902FF8CBE7002100F02BF8D3E7002100F079
S315000009A027F8DAE7002100F023F8E1E7002100F05C
S315000009B01FF8E8E7601800205C180020B019002036
S315000009C0AC180020A81800201418002010180020C9
S315000009D078170020C0170020741700208C160020FE
S315000009E0D41600208816002008B5FFF791FF08BD31
S315000009F000BE704708B54FF0FF31184B186806F077
S31500000A006BFC012803D1164B1B7833B108BD0021BE
S31500000A10124B1868FFF7ECFFF5E7114B01221A702D
S31500000A20FFF7E2FF0F4A1368013B136003E00D4A2C
S31500000A301368013B13600B4B1B68002BE6D00023A9
S31500000A401A4619460548006806F0FAF90128EED05C
S31500000A500021024B1868FFF7CBFFE8E7D419002006
S31500000A60D0190020201A002008B500230C4A136074
S31500000A700C4A13700C4A01214FF4807006F0B8F945
S31500000A800A4B186038B100F033F800F065F807F04B
S31500000A904FF9002008BD0021FFF7AAFFF3E700BFCA
S31500000AA0201A0020D0190020D8190020D4190020BF
S31500000AB0034B0360034B0B6080231360704700BF3A
S31500000AC0241E0020241A0020034B0360034B0B60F6
S31500000AD080231360704700BF841E0020241C002062
S31500000AE010B50446FFF786FF2046FFF71FFE10BD30
S31500000AF000B585B00D4A1368013313600C4B0293A1
S31500000B000C4B0193012300930B4B4FF480720B495E
S31500000B100B4807F09BF80B4B186010B105B05DF859
S31500000B2004FB0021FFF764FFF8E700BF201A00204E
S31500000B30341F0020F889002038DB000074DA00003A
S31500000B40E10A0000301F002010B50446FFF752FFEF
S31500000B502046FFF75BFE10BD00B585B00D4A136851
S31500000B60013313600C4B02930C4B0193012300934A
S31500000B700B4B4FF480720B490B4807F067F80B4B91
S31500000B80186010B105B05DF804FB0021FFF730FFD7
S31500000B90F8E700BF201A0020C81F0020F88D0020AB
S31500000BA07CDB000070DB0000490B0000C41F002046
S31500000BB062B6BFF36F8FEFF3148C2CF0040C8CF33A
S31500000BC01488BFF36F8F02DF00BEFDE700BEFEE7AD
S31500000BD01EF0040F0CBFEFF30880EFF30980014904
S31500000BE008470000750C00000F4B1968EFF30982E7
S31500000BF01EF0100F08BF22ED108A22E9F04FEFF326
S31500000C000B8342F8043D0A604FF0100080F3118810
S31500000C10BFF34F8FBFF36F8F07F018FA4FF0000046
S31500000C2080F3118800F002B8E873002007480168D5
S31500000C300A6802CA81F30B88B2E8F04F1EF0100F63
S31500000C4008BFB2EC108A82F309887047E873002067
S31500000C5010B5EFF31184102383F3118807F0C6F85B
S31500000C6018B1034B4FF080525A6084F3118810BDBF
S31500000C7000ED00E008B5836913F8023C022B02D0B0
S31500000C80032B03D808BDFFF7D1FFFBE7034B044A4C
S31500000C9040F20541034805F005FC00BF40DC0000BA
S31500000CA000DD000054DC000010B44FF0807440F802
S31500000CB0044C22F0010240F8082C084A40F80C2C9B
S31500000CC040F8203C6FF0020340F8243C283140F8FD
S31500000CD0481C48385DF8044B704700BFCD0B000038
S31500000CE008B5EFF31181102383F311880A4A1368BC
S31500000CF001331360012B00D008BD084B1960084B67
S31500000D005B68C3F30803002BF6D0064B064A40F295
S31500000D10F641064805F0C6FB2C20002028200020BE
S31500000D2000ED00E07CDC0000ECDC000054DC0000A0
S31500000D3008B5094B1B6843B1013B074A13601BB951
S31500000D40064B1B6883F3118808BD054B054A40F224
S31500000D50FF41054805F0A6FB2C2000202820002096
S31500000D60C4DC0000D8DC000054DC0000034670B18F
S31500000D70174B9A8993B212F4004F1AD1BFF34F8FD3
S31500000D8030BFBFF36F8F62B6BFF36F8F72B613F4C7
S31500000D90004F0DD00E49B1F8FE2392B24AF202502E
S31500000DA0A1F8FE039BB28B8142F42543A1F8FE33E2
S31500000DB070470749B1F8FE2392B24AF20250A1F8F1
S31500000DC0FE030020888142F42542A1F8FE23D5E7E0
S31500000DD000E0014008B572B606F0FAFF0120FFF701
S31500000DE0C5FF62B607F088F808BDFFFF0A4B1B680F
S31500000DF00A4AA2FB03239B09013BB3F1807F0AD277
S31500000E004FF0E0225361064BF02183F823100023B4
S31500000E10936107231361704774330020D34D62102A
S31500000E2000ED00E008B5064BF02283F82220FFF71C
S31500000E30DDFF044A536B43F040435363FFF7B8FEAC
S31500000E4000ED00E000EF00E0EFF30383C3F30803D7
S31500000E50103BDAB25BB2002B00DA704706DB03F117
S31500000E60604303F5614393F80033704702F00F02C5
S31500000E70014B9B5CF1E700BF14ED00E01E4B1B88A5
S31500000E80012B00D0704700B58BB0C36802699B1A6E
S31500000E90039390F822308DF80630022B0ED0822371
S31500000EA08DF80730038D042B1CD0052B1FD0032B88
S31500000EB008D040F2DC53ADF8083006E080238DF808
S31500000EC00730EFE70023ADF8083090F824308DF8AE
S31500000ED00430C369069301A9092001F037FD0BB060
S31500000EE05DF804FB40F2DE53ADF80830EDE740F262
S31500000EF0DF53ADF80830E8E744220020184B1B8882
S31500000F00012B00D0704700B58BB090F822308DF8D9
S31500000F100630012B04D0D3B982238DF8073002E0C6
S31500000F2080238DF80730038D012B14D040F2DC535B
S31500000F30ADF8083090F824308DF80430C369069374
S31500000F4001A90A2001F002FD0BB05DF804FB812324
S31500000F508DF80730E7E70023ADF80830EAE700BF71
S31500000F604422002010B5044669B900F095FC10F43F
S31500000F70807F02D04FF480700CE0204600F0C0FC69
S31500000F8000F07F0006E000F0FFFC204600F048FD80
S31500000F90C0F30A0010BDFFFF2DE9F84305460C46D5
S31500000FA090F824309EB2394A32F813309BB2022BA5
S31500000FB04CD000272146284600F0D0FA2146284684
S31500000FC000F016FB2146284600F068FB214628461D
S31500000FD001F098FC2146284600F0D6FC013FBFB23E
S31500000FE0012F45D9DFF8AC8004EB8407642303FBAB
S31500000FF006F606EB470747447988284600F0F8FCD2
S31500001000F988284600F028FD3989284600F03CFD7D
S315000010100021284600F0B8FC2146284600F0DCFDF9
S315000010202146284601F059FC2146284600F076FD67
S315000010302146284600F068FB2146284600F088FB3A
S315000010402146284600F0A8FBBDE8F883104B53F86C
S31500001050210008B105F0D0FC0D4B002243F82420F6
S315000010602146284602F040FB074695F82460A1E792
S31500001070084904EB8403642206FB02F202EB4303F5
S315000010800B445A8842F480625A80ABE79C310020B8
S31500001090342000208420002070B506460D4601222B
S315000010A000F00AFE002401E00134A4B24FF6FF73FB
S315000010B09C4209D02946304600F0FEFC10F0200F75
S315000010C0F2D14FF6FE74EFE770BD02B1704738B546
S315000010D0054643EA010448F22F0344F40042002186
S315000010E000F0D4F90021284600F0CAF900F02F03D9
S315000010F09C42F7D138BD70B505461646FFF7E5FFA9
S315000011000024632C12D83146284600F0EBF910F47F
S31500001110005F0CD1284600F0EBF8284600F002F9F3
S315000011200A2000F005FF0134A4B2EAE7FF2070BDF3
S3150000113070B504460D46164600F026FE3246294690
S31500001140204600F041FE2946204600F0DDFD70BD38
S3150000115038B504460D4600F0F7FD2946204600F056
S3150000116013FE38BD38B504460D4690F824202C4BA6
S3150000117033F812309BB2022B46D02946204601F0A6
S31500001180C1FB2946204600F0E9F92946204600F031
S315000011902FFA2946204600F081FA00231A461946FE
S315000011A02046FFF792FF2946204600F0EDFB00217E
S315000011B0204600F01DFC0021204600F04DFC0021D9
S315000011C0204600F061FC0021204600F0DDFB2946A8
S315000011D0204600F001FD2946204601F07EFB294607
S315000011E0204600F09BFC29462046FFF7B1FF294622
S315000011F0204600F089FA2946204600F0A9FA294639
S31500001200204600F0C9FA38BD064B53F8210008B154
S3150000121005F0F2FB034B002243F82520ADE700BFA3
S315000012209C3100203420002090F82420104B33F805
S3150000123012309BB2022B18D101290AD002290ED0F6
S3150000124009B100207047012A01D00A4870470A48B0
S315000012507047012A01D00948704709487047012A9A
S3150000126001D008487047084870470020704700BF03
S315000012709C31002020000940201011402800094020
S31500001280281011402C0009402C10114090F8242001
S31500001290104B33F812309BB2022B18D101290AD019
S315000012A002290ED009B100207047012A01D00A4850
S315000012B070470A487047012A01D009487047094813
S315000012C07047012A01D00848704708487047002037
S315000012D0704700BF9C3100202200094022101140B7
S315000012E02A0009402A1011402E0009402E101140F4
S315000012F090F82420084B33F812309BB2022B01D011
S31500001300002070471AB9054B188880B27047044B05
S31500001310188880B2704700BF9C3100200000094049
S315000013200010114090F82420084B33F812309BB27D
S31500001330022B01D0002070471AB9054B988880B25D
S315000013407047044B988880B2704700BF9C310020DC
S31500001350000009400010114090F82420084B33F893
S3150000136012309BB2022B01D0002070471AB9054BF0
S31500001370188980B27047044B188980B2704700BF45
S315000013809C310020000009400010114090F82420F4
S315000013900A4B33F812309BB2022B01D00020704763
S315000013A049B9012A03D0064B988A80B27047054B8B
S315000013B0D88A80B270470020704700BF9C31002059
S315000013C0000009400010114090F82400124B33F839
S315000013D010309BB2022B05D0012911D0022912D060
S315000013E059B170470128F7D101290FD0022910D031
S315000013F00029F6D1094BDA827047094B9A82704769
S31500001400074B1A837047064B9A837047034B5A83E0
S315000014107047024BDA83E4E79C310020001011404C
S315000014200000094090F82400124B33F810309BB2AC
S31500001430022B05D0012911D0022912D059B17047CB
S315000014400128F7D101290FD0022910D00029F6D1A1
S31500001450094BDA757047094B1A757047074B1A76B0
S315000014607047064B1A777047034BDA767047024B84
S31500001470DA77E4E79C3100200010114000000940B3
S3150000148008B5FFF7D1FE008880B208BD38B515460D
S315000014901C46FFF7C9FE018889B221EA040104EA65
S315000014A005030B43038038BD38B504461546FFF7E0
S315000014B0BBFE94F824200A4B33F812309BB2022B61
S315000014C000D038BD03889BB223F440639BB20380EF
S315000014D0002DF6D0028892B215430580F1E700BFD1
S315000014E09C31002008B5FFF7D1FE008880B208BD08
S315000014F008B5FFF7CBFE03886FEA43436FEA534311
S315000015009BB2038008BD08B5FFF7C0FE4FF48043C9
S31500001510038008BD90F824200D4B33F812309BB29F
S31500001520022B00D070474AB90A48C38E1BB201226B
S3150000153002FA01F1194389B2C18670470648C38E83
S315000015401BB2012202FA01F1194389B2C186E9E709
S315000015509C310020000009400010114090F8242022
S315000015600E4B33F812309BB2022B00D0704752B9A3
S315000015700B48C38E1BB2012202FA01F123EA0101D4
S3150000158089B2C18670470748C38E1BB2012202FA90
S3150000159001F123EA010189B2C186E7E79C31002007
S315000015A0000009400010114090F824200D4B33F83C
S315000015B012309BB2022B00D070474AB90A48038FFB
S315000015C01BB2012202FA01F1194389B20187704761
S315000015D00648038F1BB2012202FA01F1194389B2B0
S315000015E00187E9E79C310020000009400010114006
S315000015F090F824200E4B33F812309BB2022B00D009
S31500001600704752B90B48038F1BB2012202FA01F14F
S3150000161023EA010189B2018770470748038F1BB28D
S31500001620012202FA01F123EA010189B20187E7E703
S315000016309C310020000009400010114090F8242041
S31500001640124B33F812309BB2022B00D0704762B9AE
S315000016500F4B23F811200F48438F1BB2012202FAC9
S3150000166001F1194389B24187704701F10A02084B1B
S31500001670002023F812000848438F1BB2012202FA09
S3150000168001F1194389B24187E0E700BF9C31002090
S315000016905C200020000009400010114090F8242032
S315000016A00E4B33F812309BB2022B00D0704752B962
S315000016B00B48438F1BB2012202FA01F123EA010112
S315000016C089B2418770470748438F1BB2012202FA4D
S315000016D001F123EA010189B24187E7E79C31002045
S315000016E0000009400010114020B9054BB3F8400036
S315000016F080B27047034BB3F8400080B2704700BF1A
S31500001700000009400010114090F824200D4B33F8DA
S3150000171012309BB2022B00D070474AB9012303FA5C
S3150000172001F1C943C1F30901074BA3F846107047FD
S31500001730012303FA01F1C943C1F30901034BA3F8DD
S315000017404610E9E79C3100200000094000101140D6
S3150000175090F824200D4B33F812309BB2022B00D0A8
S3150000176070474AB9012303FA01F1C943C1F30901DC
S31500001770074BA3F848107047012303FA01F1C94348
S31500001780C1F30901034BA3F84810E9E79C31002097
S31500001790000009400010114090F824200D4B33F84A
S315000017A012309BB2022B00D070474AB9012303FACC
S315000017B001F1C943C1F30901074BA3F84A10704769
S315000017C0012303FA01F1C943C1F30901034BA3F84D
S315000017D04A10E9E79C310020000009400010114042
S315000017E090F82420094B33F812309BB2022B01D01B
S315000017F00020704722B9064BB3F84C0080B2704700
S31500001800044BB3F84C0080B2704700BF9C310020F7
S31500001810000009400010114020B9054BB3F85400F0
S3150000182080B27047034BB3F8540080B2704700BFD4
S31500001830000009400010114020B9054BB3F85600CE
S3150000184080B27047034BB3F8560080B2704700BFB2
S31500001850000009400010114020B9054BB3F85800AC
S3150000186080B27047034BB3F8580080B2704700BF90
S31500001870000009400010114020B9054BB3F85A008A
S3150000188080B27047034BB3F85A0080B2704700BF6E
S31500001890000009400010114090F82420094B33F84D
S315000018A012309BB2022B01D00020704722B9064BA2
S315000018B0B3F85C0080B27047044BB3F85C0080B2AA
S315000018C0704700BF9C310020000009400010114005
S315000018D090F82420074B33F812309BB2022B00D02D
S315000018E070471AB9044BA3F85C107047034BA3F872
S315000018F05C10F5E79C310020000009400010114003
S3150000190090F82420094B33F812309BB2022B01D0F9
S315000019100020704722B9064BB3F85E0080B27047CC
S31500001920044BB3F85E0080B2704700BF9C310020C4
S31500001930000009400010114090F82420074B33F8AE
S3150000194012309BB2022B00D070471AB9044BA3F891
S315000019505E107047034BA3F85E10F5E79C3100203C
S31500001960000009400010114020B9054BB3F8600093
S3150000197080B27047034BB3F8600080B2704700BF77
S31500001980000009400010114090F82420074B33F85E
S3150000199012309BB2022B00D070471AB9044BA3F841
S315000019A064107047034BA3F86410F5E79C310020E0
S315000019B0000009400010114090F82420094B33F82C
S315000019C012309BB2022B01D00020704722B9064B81
S315000019D0B3F8680080B27047044BB3F8680080B271
S315000019E0704700BF9C3100200000094000101140E4
S315000019F090F82420074B33F812309BB2022B00D00C
S31500001A0070471AB9044BA3F868107047034BA3F844
S31500001A106810F5E79C3100200000094000101140D5
S31500001A2090F82420094B33F812309BB2022B01D0D8
S31500001A300020704722B9064BB3F86C0080B270479D
S31500001A40044BB3F86C0080B2704700BF9C31002095
S31500001A50000009400010114090F82420074B33F88D
S31500001A6012309BB2022B00D070471AB9044BA3F870
S31500001A706C107047034BA3F86C10F5E79C310020FF
S31500001A80000009400010114090F82420074B33F85D
S31500001A9012309BB2022B00D070471AB9044BA3F840
S31500001AA06E107047034BA3F86E10F5E79C310020CB
S31500001AB0000009400010114082B00023ADF8063046
S31500001AC090F82420104B33F812309BB2022B04D02E
S31500001AD0BDF8060080B202B0704752B939B10B4B5F
S31500001AE003EB41010B889BB2ADF80630F0E70849DD
S31500001AF0F8E739B1074B03EB41010B889BB2ADF810
S31500001B000630E5E70449F8E79C3100206E000940FD
S31500001B10600009406E1011406010114090F82420BA
S31500001B200A4B33F812309BB2022B00D0704742B9F1
S31500001B30074B03EB41010B889BB243F400530B8028
S31500001B40F4E7044B03EB4101F5E700BF9C310020AD
S31500001B506E0009406E10114090F824200C4B33F8AB
S31500001B6012309BB2022B00D0704742B9094A32F8B4
S31500001B7011309BB243F4007322F811307047064AC5
S31500001B8032F811309BB243F4007322F81130EBE7C0
S31500001B909C3100206E0009406E10114090F8242000
S31500001BA00A4B33F812309BB2022B00D070474AB969
S31500001BB0074B03EB41010B889BB223F400739BB2E6
S31500001BC00B80F3E7034B03EB4101F4E79C31002064
S31500001BD06E0009406E10114090F82420164B33F821
S31500001BE012309BB2022B00D0704792B941B9134A0A
S31500001BF0B2F860309BB243F48073A2F8603070474D
S31500001C000F4A32F811309BB243F4807322F8113038
S31500001C10704741B90B4AB2F860309BB243F4807307
S31500001C20A2F860307047084A32F811309BB243F48C
S31500001C30807322F81130D7E79C310020000009405C
S31500001C406E000940001011406E10114090F82400FB
S31500001C50144B33F810309BB2022B00D0704780B97A
S31500001C6069B1114B03EB41010B889BB223F00303CF
S31500001C709BB20B800B889BB21A430A8070470B49B4
S31500001C80F2E769B10A4B03EB41010B889BB223F0E3
S31500001C9003039BB20B800B889BB21A430A80DDE7D5
S31500001CA00449F2E79C3100206E00094060000940BB
S31500001CB06E1011406010114090F824000D4B33F85F
S31500001CC010309BB2022B00D0704750B971B10A4B4D
S31500001CD003EB41010B881BB223EA020292B20A808F
S31500001CE0F2E729B1054B03EB4101F3E70449F1E7BC
S31500001CF00449EFE79C3100206E0009406E10114048
S31500001D00600009406010114090F824200B4B33F816
S31500001D1012309BB2022B00D070474AB90139084BEA
S31500001D2003EB81010B889BB243F400730B80F3E74E
S31500001D300139044B03EB8101F4E700BF9C3100201D
S31500001D40900009409010114090F824200B4B33F876
S31500001D5012309BB2022B00D0704752B90139084BA2
S31500001D6003EB81010B889BB223F400739BB20B80BB
S31500001D70F2E70139034B03EB8101F3E79C310020C5
S31500001D80900009409010114090F824200B4B33F836
S31500001D9012309BB2022B00D070474AB90139084B6A
S31500001DA003EB81010B889BB243F480730B80F3E74E
S31500001DB00139044B03EB8101F4E700BF9C3100209D
S31500001DC0900009409010114090F82400094B33F818
S31500001DD010309BB2022B00D0704728B90139064B50
S31500001DE003EB81010A80F7E70139044B03EB81011C
S31500001DF0F8E700BF9C310020920009409210114084
S31500001E007047704708B5044B1B889BB2012B00D165
S31500001E1008BD01F00FFCFBE79C31002008B500F07F
S31500001E20D3FB08BD90B9164B5B6813F4006F21D045
S31500001E30EFF31081012383F31088114B5A6822F4C3
S31500001E4000625A605B6881F3108870470C4B5B68D0
S31500001E5013F4805F11D0EFF31081012383F3108810
S31500001E60074B5A6822F400625A605B6881F3108857
S31500001E700020704740F2DD50704740F2DD50704759
S31500001E800040084000B1704770B4254BD3F80024D9
S31500001E906FF30412C3F8002491F90D30087D000198
S31500001EA0C0B2204AD41884F800031F4E46F8231007
S31500001EB01E4C03F1C00054F820506FF3104544F84F
S31500001EC0205003F01F055B09012000FA05F503F118
S31500001ED0600C42F82C5042F8235091F90C3091F8DE
S31500001EE013C04FEA0C1C5FFA8CFCD51885F800C3AA
S31500001EF046F8231003F1C00154F821506FF3104542
S31500001F0044F8215003F01F015B0900FA01F103F1C7
S31500001F10600042F8201042F8231070BC704700BFE2
S31500001F200000094000E100E0E831002000600040C8
S31500001F3008B5012104F0BEFA08BD08B506F05CF844
S31500001F4008BDFFFF08B5EFF30383C3F30803103B97
S31500001F505BB2054AC03352F823106FF3104142F8C2
S31500001F602310FFF74FFF08BD0060004008B5EFF3F0
S31500001F700383C3F30803103B5BB2084A03F1C001B5
S31500001F8052F821006FF3104042F82100044A52F83B
S31500001F9023309878FFF742FF08BD00BF006000407D
S31500001FA0E8310020EFF30383C3F30803103B5BB271
S31500001FB0044AC03352F823106FF3104142F823103D
S31500001FC0704700BF00600040EFF30383C3F30803CC
S31500001FD0103B5BB2044AC03352F823106FF3104132
S31500001FE042F82310704700BF006000402DE9F84317
S31500001FF005460E461446012A36D09D4BB3F84020BE
S3150000200092B2B3F846801FFA88F8B3F84870BFB2A8
S31500002010B3F84AE01FFA8EFEB3F830C01FFA8CF907
S31500002020D98E89B2188F80B25B8F9BB24FF0000CAD
S31500002030A5F800C0A6F800C002EA090C08EA0101EA
S3150000204038400EEA030312F47F4F0BD01CF4804F86
S315000020502AD0012C22D0864B4BF6FF72A3F84020E3
S3150000206012232B80BDE8F883824BB3F8402092B24E
S31500002070B3F846801FFA88F8B3F84870BFB2B3F8D1
S315000020804AE01FFA8EFEB3F830C01FFA8CF9D98EDB
S3150000209089B2188F80B25B8F9BB2C7E7754B4BF640
S315000020A0FF72A3F84020DBE71CF4004F0CD11CF4B0
S315000020B0005F1FD0012C17D06D4B4DF6FF72A3F8B1
S315000020C0402013232B80CDE7012C07D0684B47F621
S315000020D0FF72A3F8402011232B80C3E7654B47F618
S315000020E0FF72A3F84020F6E7624B4DF6FF72A3F8A5
S315000020F04020E6E71CF4805F10D0012C08D05C4B32
S315000021004EF6FF71A3F8401014232B803280A9E706
S31500002110584B4EF6FF71A3F84010F5E71CF4807299
S3150000212013D011F0010F10D0012C08D0504B40F203
S31500002130FE32A3F8462001232B80338092E74D4BD5
S3150000214040F2FE32A3F84620F5E71CF4806714D06F
S3150000215013F0010F11D0012C09D0454B40F2FE328D
S31500002160A3F84A2002232B80012333807AE7414BD0
S3150000217040F2FE32A3F84A20F4E71CF4007E14D0A5
S3150000218010F0010F11D0012C09D0394B40F2FE326C
S31500002190A3F8482003232B800123338062E7354BC5
S315000021A040F2FE32A3F84820F4E71CF4006F0CD18D
S315000021B092B3012C29D0CB43C3F309032C4AA2F8CE
S315000021C0463001232B8031804CE72046FFF78CFAFE
S315000021D03080012C13D0264B4FF2FF72A3F840201B
S315000021E015232B80337803F00703062B7FF43AAFD1
S315000021F0204600F0FBF900232B80338032E71D4B8D
S315000022004FF2FF72A3F84020EAE7CB43C3F309037A
S31500002210184AA2F84630D4E797B1012C09D0DA4320
S31500002220C2F309021249A1F84A2002222A80338009
S3150000223018E7DA43C2F309020E49A1F84A20F4E787
S31500002240BEF1000F3FF40EAF012C09D0C343C3F318
S315000022500903074AA2F8483003232B80308001E7A0
S31500002260C343C3F30903034AA2F84830F4E700BFA7
S31500002270000009400010114010B5044600F0B6F900
S315000022802046FFF7C9FA094B18802046FFF7D4FA13
S31500002290074B18802046FFF7DFFA064B18802046CA
S315000022A0FFF7EAFA044B188010BD00BFD0240020C7
S315000022B0D2240020C2240020C424002008B590F8AF
S315000022C02400FFF711FA00F07000302801D000203A
S315000022D008BD0120FCE7FFFF114BFF221A80114BBE
S315000022E01B88012B00D0704710B5044600F056F944
S315000022F02046FFF7F9F910F4804F03D110F0400F94
S3150000230007D110BD064BD5221A80204600F05CF995
S31500002310F7E7204600F01AF9014B00221A80F0E791
S31500002320C0240020BE240020704710B5044690F853
S31500002330240000F049F994F8240000F02FF910BDAC
S3150000234008B50B46022201461846FFF77FFC08BD7A
S3150000235008B502220021FFF779FC08BD2DE9F041FE
S3150000236080460F4615461E46440807E035F8022B00
S3150000237039463046FFF728F8013CA4B2002CF5D1C7
S3150000238018F0010F02D12846BDE8F0810022394637
S315000023903046FFF789F815F8012B39463046FFF726
S315000023A041F84FF4806239463046FFF77DF8EAE798
S315000023B02DE9F04180460F4615461E46440807E0C3
S315000023C039463046FEF7E2FF25F8020B013CA4B27F
S315000023D0002CF5D118F0010F02D12846BDE8F08196
S315000023E039463046FEF7D2FF05F8010BF5E7FFFF49
S315000023F0F8B504460E46154601461046FEF74CFE55
S3150000240021462846FFF7AAF821462846FFF7F0F8A6
S3150000241021462846FFF742F921462846FEF798FE50
S3150000242000212846FFF72CF800F00F0084422DD03B
S315000024302146284600F051FA21462846FFF76EFB52
S31500002440164B53F8243003B3154A52F824201A6168
S31500002450124F57F824301E8557F824602146284627
S31500002460FFF72AFB708557F82400436813B1002252
S3150000247011469847094D55F8240004F0BDFA00208E
S3150000248045F82400214600F003FCF8BD00231A4657
S3150000249019462846FEF719FECAE700BF3420002079
S315000024A04C21002008B5064B1B8803B908BDFFF771
S315000024B0A7FC6420FFF73CFD014B00221A80F5E7DC
S315000024C03020002008B5064B1B8803B908BDFFF76E
S315000024D097FC6420FFF72CFD014B00221A80F5E7DC
S315000024E03020002008B5034B01221A80FFF789FC33
S315000024F008BD00BF3020002030B9074A13889BB2C0
S3150000250043F0100313807047044A13889BB243F0CC
S3150000251010031380704700BF0000094000101140EF
S3150000252038B9084A13889BB223F010039BB2138074
S315000025307047054A13889BB223F010039BB21380A1
S31500002540704700BF000009400010114030B9074A2B
S3150000255013899BB243F4807313817047044A13892D
S315000025609BB243F480731381704700BF000009409B
S315000025700010114030B9074A138E9BB243F48043D2
S3150000258013867047044A138E9BB243F48043138626
S31500002590704700BF000009400010114038B9084AD2
S315000025A0138E9BB223F480439BB213867047054A71
S315000025B0138E9BB223F480439BB21386704700BFF1
S315000025C0000009400010114028B9064B4BF6FF7277
S315000025D0A3F840207047044B4BF6FF72A3F8402047
S315000025E0704700BF000009400010114028B9064B93
S315000025F04FF6F772A3F840207047044B4FF6F77278
S31500002600A3F84020704700BF0000094000101140A9
S3150000261040B9094AB2F860309BB243F00403A2F80D
S3150000262060307047054AB2F860309BB243F004034D
S31500002630A2F86030704700BF00000940001011404A
S31500002640F0B9104A13889BB243F4806313800D4B94
S315000026501B8813F4806FFAD00A4B1A8892B222F0C4
S31500002660200292B21A801A8892B242F001021A80AF
S315000026704FF480621A841A859A854FF41D421A8691
S31500002680704700BF00000940D0B91B4AB2F860305D
S315000026909BB223F003039BB2A2F8603039B9B2F8BB
S315000026A060309BB243F00103A2F860307047124AD3
S315000026B0B2F860309BB243F00203A2F86030704774
S315000026C00E4AB2F860309BB223F003039BB2A2F825
S315000026D0603039B9B2F860309BB243F00103A2F81A
S315000026E060307047054AB2F860309BB243F002038F
S315000026F0A2F86030704700BF00000940001011408A
S31500002700944602780E4B33F812309BB2022B01D05E
S31500002710002070470B4B1B88012B0ED000B593B0E1
S315000027208DF82820084B01221A8001AA604600F085
S315000027303DFB002013B05DF804FBD520704700BFB9
S315000027409C310020BC240020EC24002010B59AB057
S315000027500446104623788DF824301E4A32F813308A
S315000027609BB2022B02D000201AB010BD59B11A4BF1
S315000027701B88012B2CD0194B01221A806A4600F0C7
S31500002780D5FA0020F0E70028F1D1A388E3B968461E
S3150000279000F0B0F814AB04F10C0292E8030083E8F1
S315000027A0030023788DF8443000241394ADF8484094
S315000027B08F238DF8473005F079FD169011A9082072
S315000027C000F0C4F82046CFE76846FFF7C1FDE1E711
S315000027D0D520C9E79C310020BC240020EC24002031
S315000027E0C378082B06D85B00DBB20B44DBB2024A87
S315000027F0D05C70470020704714DD000070B592B0C1
S3150000280004460E4615460121FFF7EAFFE378082B3A
S315000028101DD8062812D00396059523788DF8283002
S31500002820ADF82600E3785B0001330A4A52F82330FC
S31500002830029301A800F0B1FD12B070BD3278064BCC
S315000028401A7272785A7203930A230593E5E70020F9
S31500002850F2E700BF1803002090030020092900D9E1
S31500002860704708B5FEF7A0FE08BD092901D900206A
S31500002870704708B5FFF720F900F0030008BD0929E5
S315000028800DD810B5044621B9FFF73AF8C0F30A008F
S3150000289010BDFFF779F82046FFF7C2F8F6E70020EB
S315000028A07047092901D90020704710B50446FFF783
S315000028B06BF82046FFF780F800F0100010BD0929DC
S315000028C001D90020704710B50446FFF75DF8204691
S315000028D0FFF772F800F4404010BD092900D970478F
S315000028E038B505460C46FFF737F921462846FFF767
S315000028F055F938BD092900D9704708B50122FFF7F7
S31500002900A5F908BD092900D9704738B505460C4612
S31500002910FEF7C2FB022221462846FFF7CDF938BD55
S3150000292008B5FEF719FD00F007000138032809D89D
S31500002930DFE800F0040A0206C02008BD4020FCE7DC
S315000029400020FAE70020F8E78020F6E770B5044695
S315000029500D468871434B1E8806EBC60C424B03EBB3
S315000029608C0C8E46BEE80F00ACE80F00BEE80F00E8
S31500002970ACE80F00DEF80030CCF80030013C0C2C3F
S3150000298014D8DFE804F00713072D2D0720406161F6
S31500002990070707002A7806EBC606344B53F82230A1
S315000029A000221146304C04EB860098472D490A88D0
S315000029B001322F4B83FB02039B1003EB8303A2EB35
S315000029C043030B8070BD2A7806EBC606274B53F8E7
S315000029D0223000221146244C04EB86009847E5E796
S315000029E02A78244B33F812309BB2012BDED006EB4B
S315000029F0C6061E4B53F82230002211461A4C04EB31
S31500002A0086009847D2E72A781A4B33F812309BB2E1
S31500002A10012BCBD06B8A5BB906EBC606134B53F87A
S31500002A20223000221146104C04EB86009847BDE781
S31500002A3006EBC6060D4B53F82230002269690A4C94
S31500002A4004EB86009847B1E72A7806EBC606074BE3
S31500002A5053F8223000226969034C04EB860098473C
S31500002A60A4E700BF9C210020882D0020802D002097
S31500002A70676666669C31002030B583B001280AD1AE
S31500002A802B4B1D88ADB2002D48D05D88ADB2002D10
S31500002A9044D0002047E0002204210A2004F066F911
S31500002AA0244B1860002840D0234B01930423009345
S31500002AB000234FF400722149214805F005F9012849
S31500002AC0DED003202FE00134A4B2042C0ED800225D
S31500002AD004210A2004F04AF905EB85032344194A28
S31500002AE042F823000028EED102201CE0002401E079
S31500002AF00134A4B2092C0FD8002204210A2004F0C4
S31500002B0035F905EB850304EB43030F4A42F823002E
S31500002B100028EDD1022006E00135ADB2012D01D825
S31500002B200024D2E7002003B030BD0120FBE700BF40
S31500002B309C310020C0210020C421002024DD00009B
S31500002B40C1300000C8210020F0210020B9B110B525
S31500002B500C4600230B600AB940F6B832094B53F80D
S31500002B6020302146186804F005FB012801D0FF201B
S31500002B7010BD23680BB10020FAE7FF20F8E7FF201D
S31500002B80704700BF9C03002000B583B0019181B15E
S31500002B90094B53F8200000231A4601A9006804F0E7
S31500002BA04FF9012803D0FF2003B05DF804FB002095
S31500002BB0FAE7FF20F8E700BF9C03002000B585B0C8
S31500002BC0019100230393D9B10E4B53F82000002343
S31500002BD003AA01A9006804F0F7F9012803D0FF2031
S31500002BE005B05DF804FB03980028F9D0064B4FF0BA
S31500002BF080525A60BFF34F8FBFF36F8F0020EFE70D
S31500002C00FF20EDE79C03002000ED00E030B583B027
S31500002C100D4690F8244003F0EFFE6B1E9BB2082B86
S31500002C2011D804EB840305EB4303002201A90748EE
S31500002C3050F8230004F09EFA012804D1019810B13F
S31500002C4003F0DAFEEDE703B030BD00BFF02100204F
S31500002C5030B583B00D4690F8244003F0CDFE6B1ED0
S31500002C609BB2042B10D804EB84032B44002201A949
S31500002C70064850F8230004F07DFA012804D1019893
S31500002C8010B103F0B9FEEEE703B030BDC821002055
S31500002C904B1E9BB2082B00D9704710B582B0044674
S31500002CA000EB800301EB4303002201A90F4850F813
S31500002CB0230004F05FFA012801D002B010BD019B89
S31500002CC0002BFAD00A4B33F814309BB2012B0AD0F2
S31500002CD00522084B53F8220000231A4601A9006872
S31500002CE004F0AEF8E9E70122F3E700BFF021002087
S31500002CF09C3100209C03002010B582B001904B1E31
S31500002D009BB2082B01D902B010BD90F8240000EB4D
S31500002D10800001EB400000231A4601A9024C54F83A
S31500002D20200004F08DF8EEE7F021002038B51446B7
S31500002D301B4B01221A801B4B18601B4B196020236A
S31500002D40002211462046FEF7C0F900212046FEF774
S31500002D50DAFB00212046FEF71FFD22460021084629
S31500002D6000F004FD0546012804D002280BD050B11E
S31500002D70284638BD00212046FFF770FD0021204679
S31500002D80FFF7B8FDF4E700212046FEF757FC0021C7
S31500002D902046FFF763FD00212046FFF7ABFDE7E77E
S31500002DA0BC2400204C2100207421002010B51446BC
S31500002DB00E4B01221A800E4B18600E4B1960002331
S31500002DC01A4619462046FEF780F900212046FEF7EE
S31500002DD09AFB00212046FEF79DFB00212046FFF7C7
S31500002DE03DFD00212046FFF785FD10BDBC240020D7
S31500002DF04C2100207421002070B506460C460025A3
S31500002E001A4B1D801A4B1D8029462046FEF746FCAC
S31500002E1029462046FEF7A2FB29462046FEF7E8FB98
S31500002E2094F82430012B10D04FF480620021204604
S31500002E30FEF73AFB072E0FD0052E0DD0082E0FD029
S31500002E4094F82400FFF7E4FB09E04FF400622946FA
S31500002E502046FEF729FBEDE72046FFF779FA70BD1D
S31500002E6000212046FEF718F9F9E700BFBC24002030
S31500002E70EC2400207047FFFF38B50446438C018DD3
S31500002E80013B142B0ED8DFE803F00B0E110D0D0DD0
S31500002E900D0D0D0D0D0D0D0D0D0D1E140D2C4000FF
S31500002EA000F05EFB38BD00F091FBFBE700F086FB0F
S31500002EB0F8E7424B5B6A13B1002211469847204659
S31500002EC0FFF733FAEEE790F8240001F0ABF840285C
S31500002ED003D0204601F034F8E4E7204601F026F856
S31500002EE0E0E701F0700140290BD004D81029D9D1B0
S31500002EF000F0FEFFD6E7602903D0702901D05029E3
S31500002F00D0D1204601F058F8CCE711F0070513D1CF
S31500002F102B4B1B88012B0CD02A4B1B8813F0600F00
S31500002F2037D1062D30D8DFE805F01216221A261EF4
S31500002F302A00FFF7F9F9EFE7012D03D0032D01D0A1
S31500002F40052DE9D194F82400FFF796F9E4E7204629
S31500002F5001F0E8FCA6E7204601F0FEFCA2E72046C9
S31500002F6001F022FD9EE7204601F02EFD9AE720465D
S31500002F7001F08CFD96E7204601F0EEFD92E7214632
S31500002F800720FFF739FF8DE721460720FFF734FFBB
S31500002F9088E70D4A13800D4B1B8853800C4B1B880A
S31500002FA093800C4B1B88D380044BDB6A002B3FF4C9
S31500002FB079AF224629460448984773E748240020FB
S31500002FC0EE240020D0240020C8240020D224002093
S31500002FD0C2240020C424002000B58BB0064B012279
S31500002FE01A8090F824308DF8043001A90320FFF7E9
S31500002FF0ADFC0BB05DF804FB442200200A4B1B8895
S31500003000012B00D0704700B58BB0074B00221A8009
S3150000301090F824308DF8043001A90620FFF796FCBD
S315000030200BB05DF804FB00BF4422002000B58BB056
S3150000303090F824308DF8043001A90420FFF786FCAF
S315000030400BB05DF804FB00B58BB090F824308DF81A
S315000030500430C369069301A90520FFF777FC0BB07E
S315000030605DF804FB38B50446458CFFF727F90128BF
S3150000307006D0F5B900212046FFF7EAFD002038BD4D
S315000030800E4B53F8253023B129462046FFF734FE70
S31500003090F4E70A4B43F8254029462046FFF701FC92
S315000030A018B9284600F0E2FBE8E7284600F026FBC0
S315000030B0E4E729462046FFF7A9FDDFE73420002094
S315000030C000B583B001E0FFF7D7FE4FF47A7201A98D
S315000030D00520FFF73BFD0028F7D10198038CA3F2EA
S315000030E05113042BF1D801A252F823F0C730000087
S315000030F00131000007310000CB3000001331000021
S31500003100FFF7B0FFE1E702460821408CFFF770F9B0
S31500003110DBE790F82400FFF7D5F9019B93F824002C
S31500003120FFF7DAF8D1E700BF002305E0044A0021E3
S3150000313022F8131001339BB2FE2BF7D9704700BF5C
S315000031404822002008B50023034A1380034A13804F
S31500003150FFF7EAFF08BD00BF46240020BE2400207A
S3150000316008B5024B1880FFF7DFFF08BD4624002094
S31500003170002309E0064AFF2122F8131003F110008C
S3150000318022F8101001339BB20F2BF3D9704700BF02
S315000031907C240020014B9B68187970474824002046
S315000031A000B58646104B99680A7893B20A4491F89E
S315000031B002C0C9784CEA012C002006E091787145DE
S315000031C00DD011780B449BB20A44634509D251785D
S315000031D00429F3D011780B449BB20A44F5E7D07862
S315000031E0EFE75DF804FB00BF482400202DE9F0431B
S315000031F0274B9B681A781FFA82FCDD789C7804EBD3
S315000032000524A4B213440027B8463D460CE09A783C
S31500003210824217D09EF8042042441FFA82F81B7897
S315000032209C445FFA8CFC7344A4452FD29E465A7880
S31500003230042AECD0052A0AD01B789C441FFA8CFC81
S315000032407344F1E7DA788A42E4D11F79E7E7BD42B1
S3150000325013D29E7893F90220002A14DB4FF000095E
S3150000326006F00F0608EB0502D2B206EB0916DFF8E8
S31500003270249029F816200135ADB21B789C441FFA1C
S315000032808CFC7344D0E74FF00109E9E7BDE8F08311
S31500003290482400207C240020064B188840B1064BA9
S315000032A09B68DB7913F0200F01D1002070470120C5
S315000032B0704700BF4624002048240020034B9B682B
S315000032C0D87910F0400000D0012070474824002033
S315000032D0092800D9704738B50446154600F018FB92
S315000032E0032805D803281DD8DFE800F00A100F16BA
S315000032F0FF2817D12A4607212046FFF779F804E070
S315000033002A460321204600F077FB38BD2A460421D1
S31500003310204600F071FBF8E72A4605212046FFF714
S3150000332067F8F2E72A4607212046FFF761F8ECE73F
S31500003330092800D9704770B504460E461546014661
S315000033401046FEF70BF92A463146204600F00EFAE3
S31500003350022813D00AD8012819D821462846FEF794
S315000033606DF921462846FFF779FA0FE0FF280ED1BE
S315000033702A4607212046FFF73BF807E02146284664
S31500003380FEF7C8F821462846FFF768FA70BD2A46B8
S3150000339007212046FFF72CF8F8E738B5438CDBB158
S315000033A00446002303604FF4A9730384442003F00A
S315000033B097FA054698B14422214605F085FD04F0AA
S315000033C075FFE86129460520FFF7DEFB044620B1BC
S315000033D0284603F011FB00E0FF24204638BDFF24F9
S315000033E0FBE7FFFF02680E4B1A6042685A6082686C
S315000033F09A60C268DA6002691A6142695A61826932
S315000034009A61C269DA61026A1A62426A5A62826A19
S315000034109A62C26ADA6290F8302083F830207047E8
S315000034204824002000B58FB04B681A680192DA680C
S3150000343002925A68E2B103924B689A6804921A693A
S3150000344005921B7D8DF834300B4B06930B4B07937F
S315000034500B4B08930B4B09930B4B0A930B4B0B939C
S315000034600B4B0C9301A8FFF7BDFF0FB05DF804FBF3
S315000034709B680393E0E700BFE5340000D92F000006
S31500003480FD2F00002D30000047300000752E000093
S315000034903D4D00002DE9F04705461646984604784E
S315000034A000274FF0FF0905E0052B0DD015F80AC0DF
S315000034B06444A4B2B44212D2A2462B195B78042B00
S315000034C0F2D1621DAF5CEFE73A46414605EB0A00D2
S315000034D000F070FC0028E9D04FF00009E6E7484606
S315000034E0BDE8F087F0B58BB005460E4600222821D0
S315000034F0FFF784FDC02E23D0184B9C680CB1022325
S315000035006370164BDB680BB107225A702CB3E37855
S31500003510A77807EB0327BFB295F8240000F07CFBE1
S315000035202B463A4631462046FFF7B4FF95F824303D
S315000035308DF8043001A90120FFF708FA0BB0F0BDA1
S31500003540064BDC689B680BB107225A70034BDB689D
S31500003550002BDBD002225A70D8E7FEE74824002071
S3150000356010B5044611F0010F25D002460021084689
S3150000357000F0CEF9032815D008D801280DD9022865
S315000035801BD100212046FFF7B5F916E0FF2814D11C
S3150000359021460720FFF730FC0FE000212046FDF70B
S315000035A0DDFF0AE000212046FDF7ADFF214605209C
S315000035B0FFF722FC01E000F065FA10BD11F0010FE3
S315000035C000D0704708B500F08FFA08BD10B5044664
S315000035D011F0010F1AD002460021084600F0C6F885
S315000035E002280ED006D8012812D800212046FEF760
S315000035F055F80DE0FF280BD121460720FFF7FCFB0D
S3150000360006E000212046FFF775F901E000F09AFA7E
S3150000361010BDFFFF05490B8803EB03108200013341
S3150000362003F01F030B80024810447047F224002069
S31500003630F424002038B5FFF7EDFF0446EFF30383CB
S31500003640C3F30803103B5BB20D4A52F82350A87827
S31500003650FEF728FF40F251132384AA7884F8242029
S31500003660AB6AE3636B6AA36304F1280104F12200E9
S31500003670FEF7BCFC21460520FFF7A0FA38BD00BFC7
S31500003680E831002000B54FEAD00E0EF0100E00F023
S315000036900F004EEA000E012001E0013080B2092839
S315000036A01CD891F824C000EB8003642202FB0CF2C4
S315000036B002EB43030B4AD35A012BEED100EB8002F7
S315000036C0642303FB0CF303EB420C064B9C44BCF84F
S315000036D0023003F01F039E45DFD100E0FF205DF8B6
S315000036E004FB00BF842000200020704708B5FDF7CA
S315000036F0FFFD10F0800000D0012008BD092800D988
S31500003700704770B50446164B53F820502E69014693
S315000037102846FDF7C1FC134B43F82460AA68124BF8
S3150000372043F8242021462846FEF736F82146284647
S31500003730FDF7EAFF21462846FFF7D6FF014640B9C6
S315000037402A462046FFF7F4FD21462846FFF7D2F821
S3150000375070BD2A4607212046FEF74AFEF8E700BF5D
S31500003760342000204C210020742100202DE9F84F40
S31500003770092875D804460F46154601B928B3002313
S315000037803A4621462846FDF7B6FC0646FF2E4CD0A3
S3150000379021462846FDF7E6FB804621462846FFF7E8
S315000037A06EF8304B53F82430C246434515D81FFAFD
S315000037B083F8B8F1000F3BD0B8FBF0F600FB16809B
S315000037C086B2BEBB54B9022608E020230022014679
S315000037D02846FDF790FC0646D8E7022621462846ED
S315000037E0FFF743F8814621462846FDF755FCDFF8EA
S315000037F078B02B465BF8242039464046FEF7AEFDEE
S315000038004BF82400174B53F82400824514D8A0EB3C
S315000038100800144B43F8240021462846FDF7BCFF58
S3150000382009F00309B9F1010F15D03046BDE8F88F4C
S315000038300126D3E70126D1E7002243F824203946A2
S315000038402846FDF74FFE10F4004FE5D139462846CD
S31500003850FDF74EFEE0E721462846FFF74BF8E4E782
S31500003860FF26E2E74C21002074210020092800D918
S31500003870704770B50446234B53F820502E69014615
S315000038802846FDF709FC204B43F82460AA681F4B25
S3150000389043F8242021462846FFF726FF024658BB58
S315000038A0002321462846FDF710FC21462846FEF750
S315000038B0E6FF5EB1B6FBF0F300FB13639BB9B6FB04
S315000038C0F0F292B221462846FDF732FC2146284600
S315000038D0FFF710F821462846FDF71CFE214628462C
S315000038E0FEF7BCFF70BDB6FBF0F2013292B2214684
S315000038F02846FDF71DFCE9E72A4607212046FEF784
S3150000390077FDEFE7342000204C21002074210020B1
S315000039102DE9F843092869D8044688461546002348
S315000039200A4601462846FDF7E6FB0746FF2830D043
S31500003930C0F30B0921462846FEF7A1FF06462C4B8D
S3150000394053F824304B450DD34B4525D0B9F1000F24
S3150000395030D00227B9FBF6F006FB1096B6B27EBB56
S315000039604E4609E021462846FDF796FB204B33F8E4
S31500003970246043F824900327B9F1000F2AD1414669
S315000039802846FDF7C0FD1A4A52F824309B1B42F820
S3150000399024303846BDE8F8832CB9B9FBF0F006FBB5
S315000039A01096B6B29EB121462846FDF775FB4E46E7
S315000039B00027E1E721462846FDF76EFB0127C9E708
S315000039C021462846FDF768FB4E460127D4E74E46BA
S315000039D00227D1E7DFF81C902B4659F824204146F0
S315000039E03046FEF7E5FC49F82400CCE7FF27D0E790
S315000039F04C21002074210020092800D97047F8B511
S31500003A0004460E46154601461046FDF745FB21467F
S31500003A102846FDF7A3FD21462846FDF7E9FD214688
S31500003A202846FDF73BFE21462846FDF791FB134B42
S31500003A3053F824300BB3124A52F824201A610F4F60
S31500003A4057F824301E8557F8246021462846FEF78D
S31500003A5033F8708557F824305C8457F8240043689F
S31500003A6000221146984757F8240002F0C5FF0020AF
S31500003A7047F824002146FFF70BF9F8BD3420002053
S31500003A804C210020F8B506460D46012406E03246D4
S31500003A9039462046FFF74CFC0134A4B2092C1FD846
S31500003AA00123A3402B42F7D021463046FDF774FE92
S31500003AB00C4B53F82430002BEED021463046FFF74E
S31500003AC013FE07460028E7D121463046FEF7E9FEF9
S31500003AD01028DCD0324639462046FFF7F9FBDBE7F3
S31500003AE0F8BD00BF3420002070B506460D460124FF
S31500003AF006E0324605212046FEF77AFC0134A4B2E0
S31500003B00092C1BD80123A3402B42F7D00C4B53F8AA
S31500003B102430002BF2D021463046FEF7D0FEB0F519
S31500003B20404FEBD13046FDF75BFE10F4004FE0D17D
S31500003B30324607212046FEF75BFCDFE770BD00BF7B
S31500003B4034200020F8B506460D46012416E021462D
S31500003B503046FDF7B1FF10F4804F32D196F824308D
S31500003B6003EB830304EB43070121294B23F81710CA
S31500003B7032462046FFF740FF0134A4B2052C25D873
S31500003B800123A3402B42F7D0224B53F82430002BBD
S31500003B90F2D096F8243003EB830304EB43031C4A6C
S31500003BA032F81330012BE7D021463046FEF75DFE92
S31500003BB010F0020FCBD0324606212046FEF718FC45
S31500003BC0DAE721463046FDF739FDD5E7062406E05B
S31500003BD0324601212046FFF70FFF0134A4B2092C1B
S31500003BE015D80123A3402B42F7D00A4B53F82430B3
S31500003BF0002BF2D021463046FEF737FE10F0020FBA
S31500003C00E6D0324606212046FEF7F2FBE5E7F8BD90
S31500003C105C200020342000200123092B26D810B573
S31500003C2003E00133DBB2092B1FD803EB83026421C7
S31500003C3000FB01F101EB42020D498A5A012AF0D13B
S31500003C400C4603EB8301642200FB02F202EB410106
S31500003C5004EB010E4FF0000C24F801C0AEF802C0D0
S31500003C60AEF806C0AEF808C0DBE710BD704700BF6F
S31500003C708420002070B50546012413E000231A466F
S31500003C8019462846FDF721FA24E0002301221946A9
S31500003C902846FDF71AFA25E031462846FDF77CF955
S31500003CA00134E4B2092C2CD895F8242004EB8403C3
S31500003CB0642101FB02F202EB4303124AD35A012BA1
S31500003CC0EED100212846FDF7DBFBA6B200F00F007F
S31500003CD0B042D3D001212846FDF7D2FB00F00F00F9
S31500003CE08642D2D002212846FDF7CAFB00F00F001B
S31500003CF08642D1D10023022219462846FDF7E5F96E
S31500003D00CAE770BD8420002038B50546012401E0CD
S31500003D100134E4B2092C11D895F8242004EB84036D
S31500003D20642101FB02F202EB4303054AD35A012B3D
S31500003D30EED121462846FDF715FAE9E738BD00BF62
S31500003D408420002010B584460A2B03D00020022BC5
S31500003D501ED010BD022801D00020F8E751B992F814
S31500003D60244013484FF0640E0EFB0400408958B1FE
S31500003D700846ECE792F824E00D48642404FB0E00A4
S31500003D80808A18B10020E2E70120E0E76046DEE71E
S31500003D90BCF1030FDDD10029DBD192F82420044BBE
S31500003DA0642101FB02339B8F002BD2D10620D0E782
S31500003DB0842000204378052B40F0948070B504469B
S31500003DC00D46C37803F00303022B05D0032B5DD009
S31500003DD0012B71D0002070BD90F90230002B4CDB16
S31500003DE013460A4601210220FFF7ACFF4FF4854C2B
S31500003DF00028F0D095F8241000EB8003642201FB24
S31500003E0002F202EB4303394AD35A012B6CD0A6784F
S31500003E1006F00F0646EA0C0694F804E063794EEACB
S31500003E20032E144600EB80024FF0640C0CFB01F3EA
S31500003E3003EB42010123635295F8242000EB800333
S31500003E400CFB02F202EB430323445E8095F8242028
S31500003E5000EB80030CFB02F202EB43032344A3F8BE
S31500003E6006E095F8243000EB80020CFB03F303EB2D
S31500003E70420C644400232381ADE713460A46002121
S31500003E800220FFF75FFF44F2102CB1E790F90230F1
S31500003E90002B08DB13460A4601210320FFF752FFD9
S31500003EA04FF4004CA4E713460A4600210320FFF70F
S31500003EB049FF48F2100C9BE790F90230002B08DB13
S31500003EC013460A4601210846FFF73CFF4CF2802CB8
S31500003ED08EE713460A4600210120FFF733FF4CF216
S31500003EE0102C85E700207047002074E7842000200E
S31500003EF010B5044600F0B9F8FFF724F92046FEF79E
S31500003F000FFD094B5B691BB101460022204698470D
S31500003F1000212046FDF7DCFC034B1B68D9792046BF
S31500003F20FDF70AFD10BD00BF4824002010B5044669
S31500003F300A20FEF702F894F82400FEF7DDFA10BD19
S31500003F4038B5054690F82400FEF7EAFA0023164A2B
S31500003F501380164A1380012401E00134A4B2092C0F
S31500003F6016D895F8241004EB8403642202FB01F1B1
S31500003F7001EB43030E4AD35A012BEED12A46082100
S31500003F802046FEF735FA21462846FDF7EBF8E4E72A
S31500003F90084BDB691BB100221E212846984795F87D
S31500003FA02400FEF79FFA38BD46240020BE240020D8
S31500003FB0842000204824002038B5044690F82400C8
S31500003FC0FEF7D8FA94F82400FDF78EFB0546204646
S31500003FD0FDF7A8F915F0400F03D000F00300012803
S31500003FE008D094F82400FEF7EFFA94F82400FEF7C0
S31500003FF0D5FA38BD94F82400FEF774FA00F036F8C6
S31500004000044B1B6A002BF4D0002203490988204682
S315000040109847EEE748240020BE24002008B5FEF7A6
S3150000402097F908BD70B506463046FDF75DFB0546B7
S315000040300A20FDF77DFF3046FDF756FB04460A20B1
S31500004040FDF776FF3046FDF74FFB85EA040313F0D4
S31500004050800FE9D1444014F0800FE5D115F0800FB0
S3150000406001D0402070BD4320FCE770477047FFFF3A
S3150000407070B504460D46002309E0314A002122F8B6
S31500004080131003F1100022F8101001339BB20F2B0E
S31500004090F3D9002306E02B4A4FF0000C22F813C098
S315000040A001339BB2FE2BF6D90026274B1E80274BE9
S315000040B01E80274B1E80274B1E80274B1E80274BBA
S315000040C01E80274B1E80274B1E80274B1E605E607E
S315000040D0264B1E6034223146254804F002FF334643
S315000040E008E00022234941F82320234941F82320F0
S315000040F001339BB2092BF4D9002308E003EBC3017B
S315000041001E4A02EB81020E21917101339BB2092BEB
S31500004110F4D9002308E00022194921F8132019498F
S3150000412041F8232001339BB2092BF4D90023164A08
S315000041301380164A138029462046FFF773F970BD8F
S315000041407C24002048220020F0240020D0240020D7
S31500004150D2240020C2240020C4240020BC24002035
S31500004160EC24002044220020C8240020D42400206F
S3150000417048240020742100204C210020882D002096
S31500004180D82400203420002046240020BE2400200D
S3150000419008B5064B9B6A3BB1054AB2F800C000223F
S315000041A0044931F81C10984708BD00BF4824002078
S315000041B0C22400204822002070B50446084B1E8801
S315000041C0084D2888FEF7CCFF2B88B34207D0064B54
S315000041D09B6923B10022024909882046984770BD91
S315000041E046240020D22400204824002008B5FEF7EB
S315000041F0AFF808BD08B5FEF7ABF808BD08B50D4B1E
S315000042001B8813F01F0F09D10B4B1B8833B90B4BBF
S315000042101B881BB90A4B1B88012B02D0FEF798F8A6
S3150000422008BD084B1B7808490B7002460120FEF7B3
S315000042307DFDF5E7D0240020D2240020C2240020F2
S31500004240C424002046240020782D002008B5104BF9
S315000042501B8803F01F03012B06D10E4B1B881BB9CD
S315000042600D4B1B88012B02D0FEF772F808BD0B4BD5
S315000042701B88FE2B09D80A4A12F8133009490B701D
S3150000428002460120FEF752FDF0E7FEF761F8EDE782
S31500004290D0240020D2240020C4240020C2240020E0
S315000042A048220020742D002010B50446414B1B887F
S315000042B01BB9414B1B88022B03D02046FEF748F85A
S315000042C010BD3E4B00221A705A703D4B1B8803F0FE
S315000042D01F03012B1ED0022B34D013B1FEF738F882
S315000042E0EEE7384B1B8893B9FEF7E8FF334B18709F
S315000042F0354B1B88012B05D0224630490220FEF79C
S3150000430015FDDDE740F002002C4B1870F4E7FEF7D0
S315000043101FF8D5E7FDF7D2FF012803D02046FEF7A8
S3150000432017F8CDE7FEF736FF264B1B88984205D9CE
S31500004330224622490220FEF7F9FCC1E72046FEF795
S3150000434007F8BDE71F4B1B8813F00F0F0FD190F82E
S315000043502400FDF709FB10F0020F02D0174B0122D3
S315000043601A70224615490220FEF7E0FCA8E7FDF781
S31500004370A5FF012803D02046FDF7EAFFA0E7214666
S31500004380104B1888FFF77EF90146FF280ED020460D
S31500004390FEF76BFA10F0020F02D0084B01221A70DA
S315000043A0224606490220FEF7C1FC89E72046FDF7B2
S315000043B0CFFF85E7D2240020C42400207C2D0020D6
S315000043C0D0240020C2240020BE24002038B5044694
S315000043D0694B1B8813F01F0240F0B680674B1B88A1
S315000043E0DDB21B0A013B072B00F2AB80DFE803F0CE
S315000043F0041D405B5E617EA6614B1B888BB985B947
S31500004400604B19680B789AB25F480088824203D9DC
S315000044102246FEF78BFCAEE022461846FEF786FCE7
S31500004420A9E02046FDF794FFA5E0554B1B8803B98C
S315000044301DB12046FDF78CFF9DE0FEF771FAC028FE
S315000044400ED0504B9968CA788B7803EB02239BB247
S315000044504D4A1088984206D22246FEF767FC8AE04B
S31500004460484BD968EFE722461846FEF75FFC82E024
S31500004470444B93F83030AB4212D9424B1B6953F888
S3150000448025100B789AB240480088904203D2224603
S31500004490FEF74CFC6FE022461846FEF747FC6AE042
S315000044A0FDF756FF67E0FDF753FF64E0FDF750FFA9
S315000044B061E0FFF71BF9012814D1314B1B888BB93A
S315000044C085B9304B59680B789AB22F4800888242DA
S315000044D003D92246FEF72AFC4DE022461846FEF78F
S315000044E025FC48E02046FDF733FF44E0FFF7FEF8E1
S315000044F0012803D1224B1B8803B91DB12046FDF7C5
S3150000450027FF38E02046FEF70BFAC0280ED01D4BD9
S31500004510D968CA788B7803EB02239BB21A4A1088B3
S31500004520984206D22246FEF701FC24E0154B996814
S31500004530EFE722461846FEF7F9FB1CE0FDF708FFF9
S3150000454019E0FDF705FF16E0012A12D10F4A138084
S315000045500A4B1B8853800A4B1B8893800A4B1B8887
S31500004560D380084BDB6A33B10246002107489847DF
S3150000457001E0FDF7EDFE38BDD0240020D224002056
S31500004580C224002048240020C4240020C82400207F
S3150000459008B50E4B1B8813F01F0F13D10C4B1B884D
S315000045A06BB90C4B1B8853B90B4B1B887F2B03D85D
S315000045B00021FEF79FF904E0FDF7CAFE01E0FDF7D2
S315000045C0C7FE08BDFDF7C4FEFBE700BFD0240020F0
S315000045D0C2240020C4240020D224002038B504467A
S315000045E03E4B1B88002B76D13D4B1B8803F01F03E7
S315000045F0012B1FD0022B20D013B1FDF7A9FE6CE0D2
S31500004600384B1B88012B02D1374B1B881BB1204628
S31500004610FDF79EFE61E0FEF73FFE012803D020462F
S31500004620FDF796FE59E00021304B19802046FEF733
S3150000463061F952E0FDF78CFE4FE02B4B188800F035
S315000046400F02284B1B88002B41D142B9002120467E
S31500004650FEF758F900212046FEF74CF93DE02146C9
S31500004660FFF710F80546FF2820D001462046FEF742
S31500004670FCF801281ED029462046FEF743F92946B4
S315000046802046FDF7A9FA00212046FEF733F9184B1C
S3150000469033F81530012B20D10021154B23F81510C6
S315000046A0144B1B680A462046984716E02046FDF73D
S315000046B04FFE12E029462046FCF7EEFC294620462E
S315000046C0FDF78AFA29462046FEF714F9DBE720466D
S315000046D0FDF73EFE01E0FDF73BFE38BDC424002099
S315000046E0D0240020D2240020C2240020BE24002092
S315000046F0D8240020D424002010B50446394B1B884A
S31500004700002B6CD1384B1B8803F01F03012B41D0C3
S31500004710022B42D013B1FDF71BFE62E0334B1B8820
S31500004720012B04D0022B18D0FFF778FC59E0304B50
S315000047301B887BB9FEF7B0FD012803D02046FDF7A4
S3150000474007FE4EE02B4B01221A8000212046FEF781
S31500004750D1F846E0FDF7FCFD43E0FEF7E1F8C0289E
S3150000476014D1234B1B88A3F5804212F4004F03D1CA
S315000047702046FDF7EDFD34E01F4A012111801F4A56
S31500004780138000212046FEF7B5F82AE02046FDF703
S31500004790DFFD26E0FDF7DCFD23E0154B188800F071
S315000047A00F02124B1B88B3B922B900212046FEF72F
S315000047B0A1F816E02146FEF765FFFF2807D021463F
S315000047C0FDF7BEFD00212046FEF794F809E02046DD
S315000047D0FDF7BEFD05E02046FDF7BAFD01E0FDF759
S315000047E0B7FD10BDC4240020D0240020D224002010
S315000047F0C2240020BE240020EE240020F024002045
S3150000480070B504461D4B1B8813F01F0F32D11C4B8D
S315000048109B685A791B4B1B889A4200D02BB91A4BBE
S315000048201B8813B9194B1D881DB12046FDF790FD55
S3150000483070BD00212046FEF75DF8124B1B88002B49
S31500004840F6D0134A12889342F2D0FEF791FCFEF797
S31500004850A1FC064605E000212846FEF7C7FC013507
S31500004860ADB2B542F7D32046FFF74EFA2046FFF722
S3150000487001FADDE7FDF76CFDDAE700BFD024002082
S3150000488048240020D2240020C2240020C424002072
S315000048904624002070B50446FDF710FD012805D119
S315000048A01B4B1B8803F01F03012B03D02046FDF78B
S315000048B04FFD70BDFEF76EFC164B1B88984202D367
S315000048C0154A12881AB12046FDF742FDF1E718464F
S315000048D0FEF766FC114B1B88984214D30D4E3288A6
S315000048E0DBB20F4D25F8123000212046FEF702F804
S315000048F0FEF73EFC308835F81010FEF777FC2046B0
S31500004900FFF7B8F9D5E72046FDF722FDD1E700BF4E
S31500004910D0240020C2240020C4240020D224002059
S315000049204822002008B50A4B00221A80094B1B8832
S3150000493003F47F43B3F5106F03D0B3F5306F03D0A4
S3150000494008BDFFF739FCFBE7FFF722FCF8E700BFDD
S31500004950EC240020D024002008B5124B1B8803F459
S315000049607F43B3F5006F13D008D9B3F5206F12D08B
S31500004970B3F5406F12D1FFF739FC08E02BB1B3F560
S31500004980C06F0BD1FFF722FD01E0FFF78DFC08BDDC
S31500004990FFF734FCFBE7FFF759FCF8E7FDF7D8FC17
S315000049A0F5E700BFD024002008B5064B1B8803F4AA
S315000049B07F43B3F5E06F02D0FDF7CAFC08BDFFF7F1
S315000049C019FCFBE7D024002030B58BB004462A4BF7
S315000049D01B8803F47F43B3F5A06F1ED008D9B3F547
S315000049E0106F1DD0B3F5306F1DD1FFF753FF0AE0EE
S315000049F0B3F5807F05D0B3F5407F14D1FFF77CFE79
S31500004A0001E0FFF7EBFD1D4B1B88012B0FD0214664
S31500004A100020FEF7F1F90BB030BDFFF7B9FDF2E764
S31500004A20FFF7EEFEEFE72046FDF792FCEBE7124BB1
S31500004A301B88ADF81030124B1B88ADF81230114BA5
S31500004A401B88ADF81430104B1B88ADF816300025C6
S31500004A500395ADF808508F238DF8073094F824306D
S31500004A608DF8043003F022FC069001A90820FDF71A
S31500004A706DFF024B1D80CAE7D0240020EC240020E5
S31500004A80D2240020C2240020C424002030B58BB0DC
S31500004A9004462C4B1B8803F47F43B3F5006F1FD0ED
S31500004AA009D9B3F5206F1FD0B3F5406F20D100218F
S31500004AB0FDF720FF0AE033B1B3F5C06F18D100212E
S31500004AC0FDF718FF02E00021FDF714FF1E4B1B88BF
S31500004AD0012B11D021460020FEF78EF90BB030BD18
S31500004AE00021FDF707FFF1E70021FDF703FFEDE7E2
S31500004AF02046FDF72DFCE9E7124B1B88ADF8103078
S31500004B00124B1B88ADF81230114B1B88ADF81430D0
S31500004B10104B1B88ADF8163000250395ADF80850EC
S31500004B208F238DF8073094F824308DF8043003F085
S31500004B30BDFB069001A90820FDF708FF024B1D806A
S31500004B40C8E700BFD0240020EC240020D224002097
S31500004B50C2240020C424002030B58BB004461E4B6E
S31500004B601B8803F47F43B3F5E06F0BD0FDF7F0FB32
S31500004B701A4B1B88012B09D021460020FEF73CF971
S31500004B800BB030BD0021FDF7B5FEF1E7124B1B88D7
S31500004B90ADF81030124B1B88ADF81230114B1B8844
S31500004BA0ADF81430104B1B88ADF816300025039570
S31500004BB0ADF808508F238DF8073094F824308DF81F
S31500004BC0043003F073FB069001A90820FDF7BEFE32
S31500004BD0024B1D80D0E700BFD0240020EC2400202B
S31500004BE0D2240020C2240020C424002000B58BB0AB
S31500004BF0024691F824308DF8043004AB0068516801
S31500004C0003C300230393ADF808308F238DF80730D4
S31500004C1001A90720FDF79AFE0BB05DF804FB00B56D
S31500004C208BB002468C468F238DF8073004AB0068A4
S31500004C30516803C39CF824308DF804300023039395
S31500004C40ADF8083001A90720FDF780FE0BB05DF82E
S31500004C5004FB30B58BB002460C4604AB00685168C5
S31500004C6003C394F824308DF8043000250395ADF87D
S31500004C7008508F238DF8073001A90720FDF766FE3F
S31500004C8021462846FEF7B8F80BB030BD30B58BB0DC
S31500004C9002460C4604AB0068516803C30021204657
S31500004CA0FDF728FE94F824308DF80430002503958E
S31500004CB0ADF808508F238DF8073003F0F7FA069009
S31500004CC001A90820FDF742FE034B1D802146284618
S31500004CD0FEF792F80BB030BDEC24002030B58BB057
S31500004CE002460C4604AB0068516803C30021204607
S31500004CF0FDF700FE94F824308DF80430BDF8163028
S31500004D000C4A12689B1A03930025ADF808508F23AE
S31500004D108DF8073003F0CAFA069001A90820FDF7BE
S31500004D2015FE054B1D8021462846FEF765F80BB09B
S31500004D3030BD00BF4C210020EC24002008B58C4675
S31500004D401146038803F06003202B01D0402B25D1A8
S31500004D50BCF1060F1ED8DFE80CF0040A130D16107E
S31500004D60190000230F4A13800F4A138018E0FFF73B
S31500004D703DFF15E0FFF73AFF12E0FFF76AFF0FE08D
S31500004D80FFF784FF0CE0FFF7A9FF09E00720FEF715
S31500004D9033F805E00720FEF72FF801E0FFF73FFFA5
S31500004DA008BD00BFBC240020EC24002070B50C46D2
S31500004DB08A780270CB7803F07F03C3700B6A836135
S31500004DC0C9693A4B43F822100378394AD25C012A62
S31500004DD069D005462278012A03D0364A022122F8F4
S31500004DE01310344A13889BB2528892B29A422CD13D
S31500004DF02F4B1B7813B92E4B5B7873B32B782C4A49
S31500004E000121D15400212C4A22F813104FF42A72A2
S31500004E102A4804F066F82378012B25D1002623784A
S31500004E20012B10D02978244A32F811309BB243F076
S31500004E30010322F81130297832F811309BB243F081
S31500004E40020322F81130304670BD2078FDF714FEBB
S31500004E500028CDD040F2DC56F5E74FF4B4720021BD
S31500004E60174804F03EF8C9E72878FCF7DBFF06464A
S31500004E7010B1002EE7D1D2E721462846FFF7F8F811
S31500004E8021462878FCF7FEFF2878FDF7D9FB28781D
S31500004E90FFF7C8F84028ECD10A20FDF74EF828782D
S31500004EA0FDF72AFBE5E740F2DD56CCE7802D002032
S31500004EB0A03100209C310020F02E0020F42E00208E
S31500004EC0882D00200278314B33F8123006238B7080
S31500004ED002782F4B33F812309BB2002B53D030B5EB
S31500004EE093B005460C468DF82820284B33F812302F
S31500004EF09BB2012B02D1002013B030BD00230B70F2
S31500004F0001A8FDF70DFD80281BD005D848B1402823
S31500004F101AD10023637006E0C02815D102236370FE
S31500004F2001E0002363702878FCF7DEFB00F07000D8
S31500004F30202822D00BD9302822D00ED20020E070B3
S31500004F40DAE701236370EEE700236370EBE788B1CD
S31500004F501028F3D10123A370F0E7602807D002D907
S31500004F60702804D0EAE7402801D05028E6D104236F
S31500004F70A370E3E70623A370E0E70223A370DDE74F
S31500004F800323A370DAE740F2DC5070479C3100201F
S31500004F90F02E002070B582B004460D461646017804
S31500004FA0134A32F8110080B202280CD0627801A9A7
S31500004FB02046FFF787FF9DF80630032B07D040F207
S31500004FC0DC5002B070BD03F07F03E370EEE73246BB
S31500004FD029462046FDF712FC20B1D52804D040F220
S31500004FE0DC50EEE70020ECE740F2DD50E9E700BFD9
S31500004FF09C310020F0B583B004460D461646427833
S3150000500001A9FFF75FFFA8B907469DF80630032BF5
S3150000501004D040F2DC57384603B0F0BD324629468C
S315000050202046FDF76DFBD52807D0FF28F3D140F2C7
S31500005030DC57F0E740F2DC57EDE740F2DD57EAE7F0
S31500005040F0B583B004460D461646427801A9FFF72F
S3150000505039FFA8B907469DF80630032B04D040F265
S31500005060DC57384603B0F0BD324629462046FDF7E8
S315000050706DFBD52807D0FF28F3D140F2DC57F0E7C7
S3150000508040F2DC57EDE740F2DD57EAE770B582B053
S3150000509004460D46427801A9FFF714FF78B9064683
S315000050A09DF80630032B04D040F2DC56304602B0A1
S315000050B070BDA9B2A1802078FDF7E6FAF6E740F2C6
S315000050C0DC56F3E770B504460D46016A8B7803F0AB
S315000050D07B038B70037833B30261C560E1690B69AA
S315000050E083B1236973B1A27802F00302013AD34077
S315000050F000222261086981688E689BB2E1680068B7
S31500005100B04700BB226A937843F0800393702378FC
S31500005110C3B9A37803F00303022B0CD0236A2A78C1
S31500005120DA7000200FE0837803F00303D21A0261DD
S315000051302B44C360D2E72B88226A43F47E43D38193
S31500005140002000E0002070BD10B58C464968096853
S315000051501360047814B103F10C041460C06940783C
S3150000516030B9C878012464F30510C8700B33136096
S31500005170DCF808301B68DCF80410DCF800009847FF
S3150000518010BD70B506460C46CB6873B15B681A68ED
S315000051904FF4002342F8043B036A0533C968FFF75E
S315000051A0D3FF054610B1284670BD00252369002BA4
S315000051B0F9D05B681A684FF0006342F8083B336A1F
S315000051C0033321693046FFF7BFFF05460028EAD0C2
S315000051D0E368002BE7D09A68126A18689047E2E7FE
S315000051E0037883B1C269D16871B101215A1E1203D5
S315000051F092B20A43036A42F006019982036A9B8AC5
S315000052009BB29342FAD17047D1695A1E097A0A4075
S31500005210120202F4706242F00101E7E730B402F0D4
S315000052201F034FEA521C01249C400E4B0CF1200C2C
S3150000523043F82C40BFF34F8FBFF36F8F0A4C02F138
S31500005240C00C54F82C506FF3104544F82C5009014B
S31500005250C9B2134483F80013044B43F8220030BC50
S31500005260704700BF00E100E000600040E831002028
S3150000527038B505460C4691F90B20897AFFF7CEFF23
S3150000528094F9052021792846FFF7C8FF94F90720ED
S31500005290A1792846FFF7C2FF94F90920217A28460A
S315000052A0FFF7BCFF38BD8B7843704A78037862F30A
S315000052B001030370CB788374C37903F0A3030A78E0
S315000052C002F05C021343C371704738B504460D46BD
S315000052D0FFF786FFAA78EB78DB0043EA02136A78C9
S315000052E0032A02D06AB3F22202E043F04003F2221C
S315000052F0216ADBB20B70216AD3B28B71E9690B7B31
S31500005300082B20D05B00226A03F0020353734B780C
S31500005310DB01DBB28A78520102F020021343226AD3
S31500005320002010720A78023AD2B2012A12D8226AF2
S31500005330FF2050700A78022A09D0226ADBB2D371A4
S3150000534038BDE222D4E7236A0A225A73DFE743F024
S315000053501003F2E7226ADBB2D3714968206AFFF7CD
S31500005360A2FFEDE770B584B005460E469446846A02
S31500005370CCB194E80F000DF1100E0EE90F00EB69A9
S315000053801B782360A66084F804C0EB6AE3606B6A4E
S3150000539020469847AC6A24B104AB13E90F0084E8B1
S315000053A00F0004B070BD6C46E9E7FFFF2DE9F04140
S315000053B004460D460B7803F5800303F58C531B0258
S315000053C00362002303700A7840F2F933D34013F0E6
S315000053D0010F01D010230370E5616B696362AB694D
S315000053E0E3620023A362A378012262F30103A370A0
S315000053F06B7823B9A378022262F30103A3702946CE
S315000054002046FFF735FF29462046FFF7BAFE064637
S31500005410002840F0A080EFF31080012383F310886A
S315000054206A4B5A682F784FF00041F94022EA010290
S315000054305A605B6880F31088226A00239370226AA0
S315000054401371226A5372226A9372226AD372226A93
S3150000545053832A7840F2F933D34013F0010F02D078
S31500005460236A4022DA74236A06221A7729462046DE
S31500005470FFF72BFF0021E16021616161A161EF6906
S3150000548097F800C0E36993F90530514A03F1C0006B
S3150000549052F8205061F3104542F8205003F01F0ED9
S315000054A05D09012000FA0EFE4A4B05F1600843F83B
S315000054B028E043F825E0E56995F90B5005F1C00EA3
S315000054C052F82E8061F3104842F82E8005F01F0E28
S315000054D06D0900FA0EFE05F1600843F828E043F86E
S315000054E025E0E56995F9075005F1C00E52F82E80C2
S315000054F061F3104842F82E8005F01F0E6D0900FA80
