S0160000726C37386931635F7265616465722E73726563F2
S31500000000F8890020296C0000556A0000256C000064
S31500000010256C0000256C0000256C0000256C000096
S31500000020000000000000000000000000790B000046
S31500000030256C000000000000910B0000F90B000089
S31500000040E959000091580000F55B00006D5C000066
S31500000050352000006520000099200000B92000002E
S31500000060000000000000000000000000000000008A
S31500000070000000000000000000000000000000007A
S31500000080000000000000000000000000000000006A
S31500000090000000000000000000000000000000005A
S315000000A0000000000000000000000000000000004A
S315000000B0000000000000000000000000000000003A
S315000000C0000000000000000000000000000000002A
S315000000D0000000000000000000000000000000001A
S315000000E0000000000000000000000000000000000A
S315000000F000000000000000000000000000000000FA
S3150000010000000000000000000000000000000000E9
S3150000011000000000000000000000000000000000D9
S3150000012000000000000000000000000000000000C9
S3150000013000000000000000000000000000000000B9
S3150000014000000000000000000000000000000000A9
S315000001500000000000000000000000000000000099
S315000001600000000000000000000000000000000089
S315000001700000000000000000000000000000000079
S315000001800000000000000000000000000000000069
S315000001900000000000000000000000000000000059
S315000001A00000000000000000000000000000000049
S315000001B00000000000000000000000000000000039
S315000001C0FFFFFFFFFFFFFFFFFFFFFFFFFFFFFFFF39
S315000001D0FFFFFFFFFFFFFFFFFFFFFFFFFFFFFFFF29
S315000001E0FFFFFFFFFFFFFFFFFFFFFFFFFFFFFFFF19
S315000001F0FFFFFFFFFFFFFFFFFFFFFFFFFFFFFFFF09
S3150000020010B5054C237833B9044B13B1044800E00C
S3150000021000BF0123237010BDC805002000000000A8
S3150000022098E8000008B5034B1BB10349034800E0FA
S3150000023000BF08BD00000000CC05002098E80000C3
S3150000024038B5044606F022F800283BD15323A268AD
S315000002502B4D516E204603FB01F1A5FB01314909E7
S3150000026006F09AF90246002844D1A3682046596E42
S3150000027001EB810101EB8101A5FB0131490905F083
S315000002804DFF002830D1A3680122596E204601EBAC
S315000002908101C1EB0111A5FB0131490905F03EFFC2
S315000002A0E0B907251B21174B20469B685A6B65F35F
S315000002B004025A635A6B61F314425A6305F0FAFE5C
S315000002C030B938BD1621104B104A114806F086FB8E
S315000002D028210D4B0D4A0E4806F080FB21210A4BC2
S315000002E00A4A0B4806F07AFB1E21074B074A0848C4
S315000002F006F074FB1A21044B044A054806F06EFB0F
S315000003001F85EB510C1F002008C9000038C90000EA
S3150000031020C900004FF0000C2DE9F84F90F900209D
S3150000032081467C2A0D4608BF6446664E664F10D04D
S315000003306145034640F2BE8005EB0900C9F10101A3
S3150000034002E0834200F0B680CC1813F9012F7C2A14
S31500000350F7D1A54240F2AE80A2F14103DBB2192BE0
S315000003600ED909EB040305EB0900C9F1010101E00F
S31500000370834205D0CC1813F8012F413A192AF7D831
S3150000038009EB040C63464F4904E0AC420ED201F877
S31500000390012B01349846A3EB0C0013F9012B202AFC
S315000003A0F3D193F900E0BEF1200FEED10022A0F1C7
S315000003B00B030A2B32545BD8B379444A12F803C0B4
S315000003C00CEB000ABAF12F0F52D8304657F83A1004
S315000003D009F08AFB00284BD107EBCA0C9CF80430C5
S315000003E0112B45D0AC4265D298F90020D3B2A3F1C7
S315000003F04101192988BF09EB04010CD80EE02D2A0A
S315000004000CD0A5420AD911F9012F0134D3B2A3F1B8
S315000004104100192802D9303B092BF0D8DFF8B0B0DB
S3150000042009EB04005946034604E0AC420ED201F83B
S31500000430012B01349846A3EB000E13F9012B202A59
S31500000440F3D193F900A0BAF17C0FEED100219CF80C
S3150000045004A00BF80E10BAF1100F2ED01C480AF0AB
S315000004607DF91C4B03EB8A0383ED000AAC4221D2D3
S3150000047098F900300D2B0FD0A5421BD909EB0403C8
S3150000048009EB0500C9F1010101E0834212D0CC1845
S3150000049013F9012F0D2AF8D1A5420BD919F9042019
S315000004A009EB04037C2A7FF447AFA5424FF00D0207
S315000004B03FF652AF0748BDE8F88F0549064809F0F0
S315000004C01DFBD3E7E405002080CB000080CA0000B6
S315000004D0540600200406002044060020022800D00E
S315000004E07047024B0248596805F080BD84D0000071
S315000004F07C160020002319462DE9F0411D4C1E4EA6
S315000005001E4F236031444FF0FF330422386807F052
S3150000051097FE2168014403292160F3D9164D06F19F
S3150000052001082B782A1D432B0BD0216831449142B8
S3150000053017D345462B7808F10108432B05F1040231
S31500000540F3D198F800304D2BEFD198F80130442BB9
S31500000550EBD198F802303E2BE7D1AD1B2560BDE804
S31500000560F08101230422386807F06AFE23681844E4
S315000005702060D6E774060020780A0020A418002020
S315000005802DE9F0476949A2B0694804F037FF28B160
S315000005902321684B684A694806F020FA6849694889
S315000005A0FFF74EFE6849694804F060FD002840F0F8
S315000005B0A480FFF79FFF5E4E654D664FDFF8BCA136
S315000005C0654C01222146304604F0C2FE002840F068
S315000005D09A804FF0FF31286807F0B4FA012840F0FE
S315000005E098803220013408F083FABC42E9D1FFF743
S315000005F081FFDAF800105948FFF78CFE04460068C0
S3150000060009F0DEF902460B46E06BCDE9202309F03E
S31500000610D7F9CDE91E01A06B09F0D2F9CDE91C018D
S31500000620606B09F0CDF9CDE91A01206B09F0C8F924
S31500000630CDE91801E06A09F0C3F9CDE91601A06A0F
S3150000064009F0BEF9CDE91401606A09F0B9F9CDE9FE
S315000006501201206A09F0B4F9CDE9100104F1400C49
S31500000660CDF838C0E06909F0ABF9CDE90C01A06915
S3150000067009F0A6F9CDE90A01606909F0A1F9CDE909
S315000006800801206909F09CF9CDE90601E06809F046
S3150000069097F9CDE90401A06809F092F9CDE90201C4
S315000006A0606809F08DF9DDE92023804689462C48EB
S315000006B0CDE900892B4909F0F7F940F2FE330138FC
S315000006C098422CD8264809F021FA8023024624496C
S315000006D01E4804F0FBFD00287FF472AF224B4FF05A
S315000006E0FF31186807F02EFA01283FF469AFA02100
S315000006F01E4B1F4A114806F071F92A210D4B0E4A6E
S315000007000E4806F06BF96C210A4B1A4A0B4806F0A4
S3150000071065F96F21154B174A084806F05FF99621CF
S31500000720154B134A054806F059F900BFE8D30000F7
S31500000730901F002000CD00006CD0000014CD0000FA
S3150000074074D300000C1F002030D30000E01E0020F0
S31500000750581800203CD0000034D00000780A002051
S315000007607806002048CD00000C18002034CD00008B
S3150000077040D000005CD0000000D0000074060020CD
S31500000780002300B583B001930379042B04D0022B18
S3150000079018D003B05DF804FB01460D4B0122186822
S315000007A0083101AB07F0E0FC019B002BF1D04FF0C4
S315000007B08052084B5A60BFF34F8FBFF36F8F03B061
S315000007C05DF804FB044B01A9186806F0CFFFEBE7C0
S315000007D0A418002000ED00E058180020F0B5204CC9
S315000007E0204F214D214E83B069464FF0FF322068DD
S315000007F007F024F80128F7D1BDF8003003F47F4351
S31500000800B3F5005F0ED0B3F5045F22D0B3F5085FF1
S315000008104FF0000128460BD004F0AEFC0028E3D0D0
S3150000082000BFE1E707223146284604F013FDDBE767
S3150000083004F0A2FC0028D7D13A88BDF8023063F351
S3150000084000023A803A88C3F3400363F341023A80D8
S31500000850CAE707223146284604F0C0FCC4E700BFB9
S315000008608416002078160020E01E0020FC020020DE
S3150000087008B58379013B092B10D8DFE803F00F0F89
S31500000880100F0F0F190F051100230C4A00F1080174
S3150000089010681A4606F0AEFE012800D100BF08BD5A
S315000008A0074B0021186806F061FF0128F6D008BD45
S315000008B00023044A00F10C01EAE700BF701700208C
S315000008C00C1800208416002010B50022032482B0E4
S315000008D0274B01201146009406F07EFB254B18603D
S315000008E0002832D0244C0121244B00224FF4807082
S315000008F0009407F0D3FB224B0146186048B3002250
S31500000900032411461F4B0120009406F065FB1E4B85
S315000009100146186000B3002404211C4B14201C4A15
S31500000920009406F059FB1B4B01461860B8B1002431
S315000009300821194B1420194A009406F04DFB184B58
S315000009400146186070B102B010BD014600F02CF8E7
S31500000950C8E700F029F8D2E700F026F8DBE700F058
S3150000096023F8E4E702B0BDE8104000F01DB800BF70
S315000009705C18002058180020AC190020A818002088
S31500000980A4180020101800200C180020741700204E
S31500000990BC1700207017002088160020D0160020F3
S315000009A084160020FFF790BF00BE704738B5164C7E
S315000009B04FF0FF31206807F0C5F8012803D0002169
S315000009C02068FFF7F1FF114B1A7802B138BD0122FA
S315000009D00F4D1A70FFF7E6FF2B68013B2B60002BCB
S315000009E0F4D00023206819461A4606F033FC012885
S315000009F0F2D000212068FFF7D7FF2B68013B2B6060
S31500000A00002BEED138BD00BFD0190020CC19002034
S31500000A101C1A002038B500230C4D0D4C01214FF453
S31500000A2080700C4A2B60237006F0B0FB0A4B1860EE
S31500000A3038B100F03BF800F071F807F031FF002004
S31500000A4038BD0146FFF7B0FFF3E700BF1C1A0020D0
S31500000A50CC190020D4190020D0190020802330B4EE
S31500000A60034D044C05600C60136030BC704700BF3A
S31500000A70201E0020201A0020802330B4034D044C91
S31500000A8005600C60136030BC704700BF801E0020FC
S31500000A90201C002000B583B00190FFF787FF019866
S31500000AA003B05DF804EBFFF76BBD00BF30B5012462
S31500000AB00D480E4A03680E4D85B01919CDE901257A
S31500000AC00C4B01604FF480720B490C48009407F000
S31500000AD079FE0B4B186008B105B030BD014605B074
S31500000AE0BDE83040FFF760BF1C1A0020F8890020DF
S31500000AF0301F0020E4D3000020D30000950A000038
S31500000B002C1F002000B583B00190FFF74FFF01981E
S31500000B1003B05DF804EBFFF761BE00BF30B50124FA
S31500000B200D480E4A03680E4D85B01919CDE9012509
S31500000B300C4B01604FF480720B490C48009407F08F
S31500000B4041FE0B4B186008B105B030BD014605B03B
S31500000B50BDE83040FFF728BF1C1A0020F88D0020A2
S31500000B60C41F002028D400001CD40000050B000080
S31500000B70C01F002000BEFEE71EF0040F0CBFEFF3FF
S31500000B800880EFF309800149084700001D0C0000AA
S31500000B900F4B1968EFF309821EF0100F08BF22ED04
S31500000BA0108A22E9F04FEFF30B8342F8043D0A6006
S31500000BB04FF0100080F31188BFF34F8FBFF36F8F94
S31500000BC007F0FAFF4FF0000080F3118800F002B83A
S31500000BD0E8730020074801680A6802CA81F30B8897
S31500000BE0B2E8F04F1EF0100F08BFB2EC108A82F385
S31500000BF009887047E873002010B5EFF311841023BD
S31500000C0083F3118807F0C8FF18B14FF08052024BEA
S31500000C105A6084F3118810BD00ED00E008B58369C1
S31500000C2013F8023C022B02D0032B04D808BDBDE802
S31500000C300840FFF7CFBF40F20541024B024A034886
S31500000C4005F0CCFEECD40000ACD5000000D50000C9
S31500000C5070B440F8203C4FF080756FF002040346F4
S31500000C60084E283122F0010240F80C6C40F8045C72
S31500000C7040F8244C40F8082C43F8481D184670BC30
S31500000C80704700BF750B000008B5EFF31181102304
S31500000C9083F311880A4A13680133012B136000D0CD
S31500000CA008BD084A084B11605B68C3F30803002BB4
S31500000CB0F6D040F2F641054B054A064805F08EFE91
S31500000CC0282000202420002000ED00E028D5000088
S31500000CD098D5000000D50000094A08B513683BB155
S31500000CE0013B13601BB9074B1B6883F3118808BDD2
S31500000CF040F2FF41044B054A054805F06FFE00BF70
S31500000D00282000202420002070D5000084D5000073
S31500000D1000D5000008B572B607F038FE184A938968
S31500000D2019B200299BB20EDA4AF2025E4FF0000CAD
S31500000D30B2F8FE03A2F8FEE380B240F42540A2F822
S31500000D400CC0A2F8FE03BFF34F8F30BFBFF36F8F07
S31500000D5062B6BFF36F8F72B600290CDA4AF2025000
S31500000D600749B1F8FE23A1F8FE0392B242F42542E8
S31500000D708B81A1F8FE2362B6BDE8084007F00EBEDF
S31500000D8000E001400D4B0E4A1B68A2FB03239B09A2
S31500000D90013BB3F1807F0FD24FF0E0224FF0F00C11
S31500000DA00020072110B4074C536184F823C05DF876
S31500000DB0044B906111617047704700BF703300208B
S31500000DC0D34D621000ED00E0F02208B50B4B83F81E
S31500000DD02220FFF7D7FF0A4A536B43F04043536381
S31500000DE062B6BFF36F8FEFF3148C2CF0040C8CF308
S31500000DF01488BFF36F8F02DF00BEFDE700ED00E051
S31500000E0000EF00E0EFF30383103B5BB2002B05DB42
S31500000E1003F1604303F5614393F80033704700BF65
S31500000E201C4B1B88012B00D0704790F8223010B560
S31500000E30022B0CBF802182218AB0C26804698DF81A
S31500000E400630038D121B042B03928DF8071013D066
S31500000E50052B1AD0032B14D040F2DC53ADF8083022
S31500000E6090F82420C36901A909208DF8042006936F
S31500000E7001F05CFD0AB010BD40F2DE53ADF808305B
S31500000E80EEE70023ADF80830EAE740F2DF53ADF8AD
S31500000E900830E5E740220020164B1B88012B00D0C6
S31500000EA0704700B590F822308BB0012B8DF80630D4
S31500000EB01CD0BBB181238DF80730028D40F2DC5384
S31500000EC0012A08BF002390F824C0C26901A90A209C
S31500000ED08DF804C00692ADF8083001F027FD0BB07E
S31500000EE05DF804FB82238DF80730E6E780238DF852
S31500000EF00730E2E74022002010B5044631B900F081
S31500000F006BFDC3050AD54FF4807010BD00F0DCFD03
S31500000F10204600F025FEC0F30A0010BD204600F072
S31500000F208FFD00F07F0010BD2DE9F0414F4B90F88A
S31500000F302470044633F817300D469BB2022B4DD071
S31500000F4000F0CCFB2946204600F002FC294620464C
S31500000F5000F04CFC2946204601F0C8FC29462046F4
S31500000F6000F0B2FD642207FB02F2DFF8088105EB10
S31500000F70850302EB430343445988AE00204600F044
S31500000F80D7FD7319642607FB06F606EB43064644AF
S31500000F902046F18800F000FE2046318900F014FE5C
S31500000FA02046002100F090FD2946204600F0B6FEBE
S31500000FB02946204601F086FC2946204600F050FED0
S31500000FC02946204600F040FC2946204600F060FCF9
S31500000FD029462046BDE8F04100F07EBC244E56F876
S31500000FE0210008B105F046FF0023294646F82530C2
S31500000FF0204602F0FFFB80462946204694F82470DE
S3150000100000F06CFB2946204600F0A2FB294620464C
S3150000101000F0ECFB08F1FF382946204601F066FC9B
S315000010201FFA88F82946204600F04EFDB8F1010F58
S315000010300FD8642207FB02F2DFF8388005EB850340
S3150000104002EB430343445988AE0041F48061598062
S3150000105094E764230A2207FB03F302FB0533DFF858
S315000010601480AE004344598888E700BF98310020B9
S31500001070302000208020002070B5344B90F82420CA
S31500001080054633F812300E469BB2022B54D0314639
S31500001090284601F02BFC3146284600F01FFB31465E
S315000010A0284600F055FB3146284600F09FFB48F2E3
S315000010B02F034FF400420021284600F0BDF900211D
S315000010C0284600F083F910F02F04F8D1314628465F
S315000010D000F0FAFC2146284600F02AFD2146284663
S315000010E000F05AFD2146284600F06EFD21462846AE
S315000010F000F0EAFC3146284600F010FE314628464C
S3150000110001F0E0FB3146284600F0AAFD31462846AC
S3150000111000F0B0FE3146284600F0CAFE31462846A9
S3150000112000F092FB3146284600F0B2FB31462846D5
S31500001130BDE8704000F0D0BB054C54F8210008B162
S3150000114005F098FE002344F82630A0E798310020E9
S315000011503020002070B501224FF6FF7406460D467A
S3150000116000F042FE2946304600F046FD013C83066B
S31500001170A4B200D470BD002CF4D170BD70B5054684
S315000011801646A2B164240BE0284600F05BF8013C49
S31500001190284600F071F8A4B20A2000F045FFC4B159
S315000011A03146284600F0D0F98304EDD570BD41EAFA
S315000011B00304114648F22F0344F4004200F03CF9C0
S315000011C00021284600F002F900F02F008442F7D1F2
S315000011D0D8E7FF2070BD00BF02B1704738B543EABB
S315000011E00104114648F22F0344F40042054600F07C
S315000011F023F90021284600F0E9F800F02F039C426D
S31500001200F7D138BD30B504460D4683B0019200F0E3
S315000012104FFE29462046019A00F068FE29462046E0
S3150000122003B0BDE8304000F007BE00BF38B5044645
S315000012300D4600F01FFE29462046BDE8384000F066
S3150000124037BE00BF094B90F8242033F812309BB20A
S31500001250022B01D0002070471AB9054B188880B2BE
S315000012607047044B188880B2704700BF9831002041
S315000012700000094000101140094B90F8242033F873
S3150000128012309BB2022B01D0002070471AB9054BD1
S31500001290988880B27047044B988880B2704700BF28
S315000012A0983100200000094000101140094B90F8C9
S315000012B0242033F812309BB2022B01D00020704755
S315000012C01AB9054B188980B27047044B188980B249
S315000012D0704700BF983100200000094000101140FF
S315000012E0094B90F8242033F812309BB2022B01D020
S315000012F0002070470029FBD1012A0BBF034B044B8A
S31500001300D88A988A80B27047983100200010114020
S3150000131000000940134B90F8240033F810309BB2BC
S31500001320022B05D0012914D002290FD059B17047DC
S315000013300128F7D1012912D002290DD00029F6D1B2
S31500001340094BDA827047094B9A827047074B9A839A
S315000013507047064B1A837047034BDA83E7E7024B65
S315000013605A83704798310020001011400000094050
S31500001370134B90F8240033F810309BB2022B05D0A3
S31500001380012914D002290FD059B170470128F7D18D
S31500001390012912D002290DD00029F6D1094BDA75A0
S315000013A07047094B1A757047074B1A777047064BFB
S315000013B01A767047034BDA77E7E7024BDA7670471F
S315000013C0983100200010114000000940134B90F89E
S315000013D0242033F812309BB2022B1CD1012912D0E3
S315000013E0022907D10E490F4B012A18BF0B46188850
S315000013F080B2704779B90C490C4B012A18BF0B46CD
S31500001400188880B270470A490A4B012A18BF0B4652
S31500001410188880B2704700231B88FFDE98310020B1
S315000014202C0009402C1011402000094020101140CA
S31500001430280009402810114010B5194C90F824E0F6
S3150000144034F81E0080B2022826D101291CD00229B8
S3150000145007D114491448BEF1010F0CBF8C468446CF
S3150000146007E0C9B911491248BEF1010F0CBF8C46FD
S315000014708446BCF8001003EA02008AB222EA03039B
S315000014800343ACF8003010BD0A490B48BEF1010F0A
S315000014900CBF8C468446ECE700231B88FFDE00BFAA
S315000014A0983100202C1011402C00094020101140CA
S315000014B020000940281011402800094010B41B4C98
S315000014C090F8240034F810309BB2022B04D1012985
S315000014D026D002291ED0B9B1002134F810309BB2B3
S315000014E0022B02D05DF8044B70470B8823F440634F
S315000014F01B041B0C0B80002AF4D00B885DF8044BF0
S315000015009BB21A430A80704709490A4B012818BF43
S315000015101946E2E70849094B012818BF1946DCE7D6
S315000015200749084B012818BF1946D6E7983100200D
S3150000153020101140200009402C1011402C000940B9
S315000015402810114028000940164B90F8242033F843
S3150000155012309BB2022B21D1012917D0022907D1C3
S315000015601149124B012A18BF0B46188880B27047E2
S31500001570A1B903F180430E4903F5881303F581539E
S31500001580012A18BF0B46188880B2704709490A4BD2
S31500001590012A18BF0B46188880B2704700231B88A3
S315000015A0FFDE00BF983100202E0009402E101140AA
S315000015B0220009402A0009402A101140144B90F8D5
S315000015C0242033F812309BB2022B1DD1012915D0ED
S315000015D0022905D10F49104B012A18BF194605E00B
S315000015E091B90E490E4B012A18BF19460B886FEAAE
S315000015F043436FEA53439BB20B80704709490A4B3A
S31500001600012A18BF1946F1E700231B88FFDE00BF39
S31500001610983100202E1011402E0009402210114052
S31500001620220009402A1011402A000940174B90F861
S31500001630242033F812309BB2022B24D1012919D071
S31500001640022908D1124B1349012A18BF0B464FF441
S3150000165080421A807047B1B903F180430E4903F501
S31500001660881303F58153012A18BF0B464FF48042B5
S315000016701A807047094B0A49012A18BF0B464FF4D6
S3150000168080421A80704700231B80FFDE98310020BD
S315000016902E1011402E000940220009402A10114048
S315000016A02A0009400A4B90F8242033F812309BB2E6
S315000016B0022B00D0704701233AB1064AD08E03FAB6
S315000016C001F1014389B2D1867047034AF6E700BFAC
S315000016D09831002000101140000009400B4B90F893
S315000016E0242033F812309BB2022B00D070474AB147
S315000016F001220748C38E02FA01F19BB223EA0101D7
S31500001700C186704701220348F4E700BF98310020E4
S3150000171000101140000009400A4B90F8242033F8CD
S3150000172012309BB2022B00D0704701233AB1064A11
S31500001730108F03FA01F1014389B211877047034AFA
S31500001740F6E700BF98310020001011400000094064
S315000017500B4B90F8242033F812309BB2022B00D0AA
S3150000176070474AB101220748038F02FA01F19BB282
S3150000177023EA01010187704701220348F4E700BF0D
S31500001780983100200010114000000940134B90F8DA
S31500001790242033F812309BB2022B00D0704710B5CC
S315000017A05AB901230E4C0F4824F81120428F03FA30
S315000017B001F1114389B2418710BD4FF0000E01239C
S315000017C00748094A01F10A0C20F81CE003FA01F166
S315000017D0538F194389B2518710BD00BF983100203D
S315000017E05820002000000940001011400B4B90F8D3
S315000017F0242033F812309BB2022B00D070474AB136
S3150000180001220748438F02FA01F19BB223EA010144
S315000018104187704701220348F4E700BF9831002052
S31500001820001011400000094020B9054BB3F84000F4
S3150000183080B27047034BB3F8400080B2704700BFD8
S3150000184000000940001011400E4B90F8242033F898
S3150000185012309BB2022B00D07047012342B903FA23
S3150000186001F1C943084AC1F30901A2F846107047BD
S3150000187003FA01F1C943054AC1F30901A2F846106A
S31500001880704700BF98310020000009400010114049
S315000018900E4B90F8242033F812309BB2022B00D066
S315000018A07047012342B903FA01F1C943084AC1F35B
S315000018B00901A2F84810704703FA01F1C943054A25
S315000018C0C1F30901A2F84810704700BF9831002003
S315000018D000000940001011400E4B90F8242033F808
S315000018E012309BB2022B00D07047012342B903FA93
S315000018F001F1C943084AC1F30901A2F84A10704729
S3150000190003FA01F1C943054AC1F30901A2F84A10D5
S31500001910704700BF983100200000094000101140B8
S315000019200A4B90F8242033F812309BB2022B01D0D8
S315000019300020704722B9064BB3F84C0080B27047BE
S31500001940044BB3F84C0080B2704700BF98310020BA
S31500001950000009400010114020B9054BB3F85400AF
S3150000196080B27047034BB3F8540080B2704700BF93
S31500001970000009400010114020B9054BB3F856008D
S3150000198080B27047034BB3F8560080B2704700BF71
S31500001990000009400010114020B9054BB3F858006B
S315000019A080B27047034BB3F8580080B2704700BF4F
S315000019B0000009400010114020B9054BB3F85A0049
S315000019C080B27047034BB3F85A0080B2704700BF2D
S315000019D000000940001011400A4B90F8242033F80B
S315000019E012309BB2022B01D00020704722B9064B61
S315000019F0B3F85C0080B27047044BB3F85C0080B269
S31500001A00704700BF983100200000094000101140C7
S31500001A10084B90F8242033F812309BB2022B00D0EA
S31500001A2070471AB9044BA3F85C107047034BA3F830
S31500001A305C107047983100200000094000101140EA
S31500001A400A4B90F8242033F812309BB2022B01D0B7
S31500001A500020704722B9064BB3F85E0080B270478B
S31500001A60044BB3F85E0080B2704700BF9831002087
S31500001A700000094000101140084B90F8242033F86C
S31500001A8012309BB2022B00D070471AB9044BA3F850
S31500001A905E107047034BA3F85E1070479831002024
S31500001AA0000009400010114020B9054BB3F8600052
S31500001AB080B27047034BB3F8600080B2704700BF36
S31500001AC00000094000101140084B90F8242033F81C
S31500001AD012309BB2022B00D070471AB9044BA3F800
S31500001AE064107047034BA3F86410704798310020C8
S31500001AF000000940001011400A4B90F8242033F8EA
S31500001B0012309BB2022B01D00020704722B9064B3F
S31500001B10B3F8680080B27047044BB3F8680080B22F
S31500001B20704700BF983100200000094000101140A6
S31500001B30084B90F8242033F812309BB2022B00D0C9
S31500001B4070471AB9044BA3F868107047034BA3F803
S31500001B5068107047983100200000094000101140BD
S31500001B600A4B90F8242033F812309BB2022B01D096
S31500001B700020704722B9064BB3F86C0080B270475C
S31500001B80044BB3F86C0080B2704700BF9831002058
S31500001B900000094000101140084B90F8242033F84B
S31500001BA012309BB2022B00D070471AB9044BA3F82F
S31500001BB06C107047034BA3F86C10704798310020E7
S31500001BC00000094000101140084B90F8242033F81B
S31500001BD012309BB2022B00D070471AB9044BA3F8FF
S31500001BE06E107047034BA3F86E10704798310020B3
S31500001BF000000940001011404FF0000C134B90F804
S31500001C00242082B0ADF806C033F812309BB2022B06
S31500001C1004D0BDF8060080B202B0704762B181B14F
S31500001C200B4B03EB41010B889BB2ADF80630BDF8B8
S31500001C30060080B202B0704729B1064B03EB4101A2
S31500001C40F1E70549EFE70549EDE700BF98310020C8
S31500001C506E1011406E00094060101140600009408E
S31500001C600B4B90F8242033F812309BB2022B00D095
S31500001C70704742B1074B03EB41010B889BB243F41B
S31500001C8000530B807047044B03EB4101F5E700BF9F
S31500001C90983100206E1011406E0009400D4B90F8EF
S31500001CA0242033F812309BB2022B00D0704742B981
S31500001CB0094A32F811309BB243F4007322F811300E
S31500001CC07047064A32F811309BB243F4007322F88B
S31500001CD011307047983100206E0009406E10114097
S31500001CE00B4B90F8242033F812309BB2022B00D015
S31500001CF070474AB1074B03EB41010B8823F400738D
S31500001D001B041B0C0B807047034B03EB4101F4E7EC
S31500001D10983100206E1011406E000940174B90F864
S31500001D20242033F812309BB2022B00D070474AB9F8
S31500001D30D9B9134AB2F860309BB243F48073A2F863
S31500001D406030704741B90F4AB2F860309BB243F435
S31500001D508073A2F8603070470B4A32F811309BB29C
S31500001D6043F4807322F81130E0E7084A32F8113064
S31500001D709BB243F4807322F81130704798310020EB
S31500001D8000000940001011406E1011406E0009401D
S31500001D90104B90F8240033F810309BB2022B00D081
S31500001DA0704770B191B10C4B03EB41010B8823F0E6
S31500001DB003031B041B0C0B800B889BB21A430A807F
S31500001DC0704729B1054B03EB4101EFE70449EDE705
S31500001DD00449EBE7983100206E1011406E0009406F
S31500001DE060101140600009400E4B90F8240033F853
S31500001DF010309BB2022B00D0704748B169B10A4B34
S31500001E0003EB41010B889BB223EA02020A8070476A
S31500001E1029B1064B03EB4101F4E70549F2E7054911
S31500001E20F0E700BF983100206E1011406E000940A7
S31500001E3060101140600009400B4B90F8242033F8E5
S31500001E4012309BB2022B00D0704742B1074A89007C
S31500001E500A4413889BB243F4007313807047044A04
S31500001E6089000A44F5E700BF983100208C10114024
S31500001E708C0009400B4B90F8242033F812309BB2AB
S31500001E80022B00D070474AB1074A89000A441388DA
S31500001E9023F400731B041B0C13807047034A89004C
S31500001EA00A44F4E7983100208C1011408C00094058
S31500001EB00B4B90F8242033F812309BB2022B00D043
S31500001EC0704742B1074A89000A4413889BB243F41B
S31500001ED0807313807047044A89000A44F5E700BFFF
S31500001EE0983100208C1011408C000940094B90F865
S31500001EF0240033F810309BB2022B00D0704720B17B
S31500001F00054B89000B441A807047044B89000B442B
S31500001F10F9E700BF983100208E1011408E0009406D
S31500001F20704700BF704700BF124B5A6870B9110561
S31500001F301CD5EFF31081012282F310885A6822F42F
S31500001F4000625A605B6881F310887047D2040DD531
S31500001F50EFF31081012282F310885A6822F400629E
S31500001F605A605B6881F310880020704740F2DD50AC
S31500001F70704700BF0040084000284BD14FF0010CCD
S31500001F80F0B5254B254DD3F80024254E60F30412F9
S31500001F90C3F800240A7D91F90D301201214CEF1887
S31500001FA0D2B287F8002303F1C00E46F823105A096F
S31500001FB054F82E70920003F01F0302F1604202F5FE
S31500001FC061420CFA03F360F3104744F82E70C2F82E
S31500001FD080311360CB7C91F90C201B011544DBB2D8
S31500001FE085F8003346F8221002F1C00154F821505A
S31500001FF053099B0002F01F0203F1604360F3104592
S315000020000CFA02F203F5614344F82150C3F880212B
S315000020101A60F0BD704700BF0000094000E100E013
S31500002020E431002000600040012104F0DFBC00BF65
S3150000203006F05EBDEFF30383103B084A5BB2C03384
S3150000204052F8231006486FF3104142F82310038814
S315000020509BB2012B00D1704701F0B0BA006000407E
S315000020609831002010B4EFF30383103B084A5BB2AB
S3150000207003F1C00152F82100064C6FF3104042F8FC
S31500002080210054F823305DF8044B987800F0BABA72
S3150000209000600040E4310020EFF30383103B054A63
S315000020A05BB2C03352F823106FF3104142F823108D
S315000020B0704700BF00600040EFF30383103B054A02
S315000020C05BB2C03352F823106FF3104142F823106D
S315000020D0704700BF006000402DE9F043012A0CBFA5
S315000020E0784B794B0446B3F840E0B3F84660B3F852
S315000020F04880B3F84A70B3F830C0D88E1D8F5B8F16
S315000021001FFA85F99DB200231FFA8EFE1EF47F4F3B
S31500002110238083B0B6B21FFA88F8BFB21FFA8CFCD0
S3150000212080B20B800ED00EEA0C0313F4804F0CD055
S31500002130012A4BF6FF720CBF624B634BA3F840209B
S315000021401223238003B0BDE8F08313F4004F0DD1B2
S3150000215013F4005F17D0012A4DF6FF720CBF594BDE
S31500002160594BA3F8402013232380EBE7012A47F6B7
S31500002170FF720CBF534B544BA3F84020112323800E
S3150000218003B0BDE8F08313F4805F12D1304013F43E
S3150000219080761BD010F0010F18D0012A40F2FE32D3
S315000021A00CBF484B484BA3F84620012323800B80E5
S315000021B0C8E7012A4EF6FF720CBF424B424BA3F80A
S315000021C0402014232380A1F800E0BBE713F4806CC1
S315000021D007EA05070ED0FD070CD5012A40F2FE32AC
S315000021E00CBF384B384BA3F84A2002220123228029
S315000021F00B80A7E713F4007E08EA09050FD015F057
S31500002200010F0CD0012A40F2FE320CBF2D4B2E4B93
S31500002210A3F848200322012322800B8092E71B05A6
S315000022201DD466B1C343012A0CBF264A264AC3F30E
S315000022300903A2F8463001232380088082E7BCF117
S31500002240000F2DD0FB43012A0CBF1E4A1E4AC3F3C2
S315000022500903A2F84A30022323800F8072E7104652
S3150000226001910092FFF7E0FA0199009A08804FF277
S31500002270FF70012A0CBF134B134BA3F84000152324
S3150000228023800B8803F00703062B7FF45BAF104611
S31500002290009100F0C7F90023009923800B8051E7D5
S315000022A0BEF1000F3FF44EAFEB43012A0CBF054AC7
S315000022B0054AC3F30903A2F84830032323800D809F
S315000022C040E700BF001011400000094010B5044669
S315000022D000F0A8F92046FFF73FFB0246094B2046CF
S315000022E01A80FFF749FB0246074B20461A80FFF784
S315000022F053FB0246054B20461A80FFF75DFB044B55
S31500002300188010BDCC240020CE240020BE2400203E
S31500002310C024002008B590F82400FFF785FA00F0E5
S315000023207000A0F13000B0FA80F0400908BD00BF8F
S31500002330FF220F4B70B51B880E4D012B2A8000D053
S3150000234070BD044600F04EF92046FFF76DFA10F412
S31500002350804606D14306F3D5204600F01BF92E80B1
S3150000236070BDD52320462B80BDE8704000F04AB9E9
S31500002370BA240020BC240020704700BF10B50446D4
S3150000238090F8240000F03EF994F82400BDE81040CF
S3150000239000F028B90B46022201461846FFF7F8BCA2
S315000023A002220021FFF7F4BC2DE9F04145088046E2
S315000023B00F4614461E4623D002EB450534F8022B81
S315000023C039463046FEF7A6FFAC42F7D118F0010FAA
S315000023D002D12846BDE8F081394630460022FFF793
S315000023E06DF815F8012B39463046FEF7C1FF304629
S315000023F04FF480623946FFF761F82846BDE8F08160
S315000024001546E3E72DE9F041450807468846144698
S315000024101E4617D002EB450541463046FEF760FFE3
S3150000242024F8020BAC42F7D1FB0702D42846BDE8DC
S31500002430F08141463046FEF753FF05F8010B28466A
S31500002440BDE8F0811546EFE72DE9F0410446154653
S3150000245010460F462146FEF77DFE21462846FFF729
S315000024603DF921462846FFF773F921462846FFF72E
S31500002470BDF921462846FEF7D9FE00212846FEF77B
S31500002480A5FF00F00F0084422DD021462846DFF834
S31500002490688000F017FA21462846FFF7E1FB58F856
S315000024A02460F6B1134B284653F824302146336195
S315000024B03785FFF7A1FB58F824305D6870852DB18C
S315000024C0002218461146A84758F82430184604F04A
S315000024D0D1FC0020214648F82400BDE8F04100F078
S315000024E09DBBBDE8F081002328461A461946FEF733
S315000024F073FECAE7482100203020002010B5064CA4
S31500002500238803B910BDFFF70BFD6420FFF78CFD90
S315000025100023238010BD00BF2C20002010B5064CE0
S31500002520238803B910BDFFF7FBFC6420FFF77CFD91
S315000025300023238010BD00BF2C2000200122024B67
S315000025401A80FFF7EFBC00BF2C20002030B9074AE5
S3150000255013889BB243F0100313807047044A138814
S315000025609BB243F010031380704700BF0000094080
S315000025700010114038B9054A138823F010031B04D4
S315000025801B0C13807047024AF6E700BF00000940A3
S315000025900010114030B9074A13899BB243F4807387
S315000025A013817047044A13899BB243F480731381E5
S315000025B0704700BF000009400010114030B9074ABB
S315000025C0138E9BB243F4804313867047044A138EDE
S315000025D09BB243F480431386704700BF0000094056
S315000025E00010114038B9054A138E23F480431B04AA
S315000025F01B0C13867047024AF6E700BF000009402D
S31500002600001011404BF6FF7218B9044BA3F8402096
S315000026107047034BA3F84020704700BF00000940F5
S31500002620001011404FF6F77218B9044BA3F840207A
S315000026307047034BA3F84020704700BF00000940D5
S315000026400010114040B9094AB2F860309BB243F01D
S315000026500403A2F860307047054AB2F860309BB2B6
S3150000266043F00403A2F86030704700BF0000094041
S3150000267000101140D8B90E4B1A8892B242F480620B
S315000026801A801A885205FCD54FF480614FF41D401C
S315000026901A8822F020021204120C1A801A8892B2AA
S315000026A042F001021A8019841985998518867047A7
S315000026B00000094088B90C4AB2F8603023F00303E1
S315000026C01B041B0CA2F86030B2F860309BB231B923
S315000026D043F00103A2F860307047044AECE743F088
S315000026E00203A2F860307047000009400010114054
S315000026F0104B90F800C033F81C309BB2022B01D06F
S31500002700002070470C4B1B88012B10D000B54FF0F2
S31500002710010E93B0094B104601AA8DF828C0A3F804
S3150000272000E000F00BFB002013B05DF804FBD520A1
S31500002730704700BF98310020B8240020E82400200C
S3150000274030B5224B044600789BB033F810308DF834
S3150000275048009BB2022B02D000201BB030BD0D46B4
S3150000276071B11B4B1B88012B2BD00124194B294619
S31500002770104609AA1C8000F09DFA00201BB030BD4F
S31500002780002AEED1A38809A8EBB1FFF709FE0025C0
S315000027908F22217803AB0C348DF800108DF80320BE
S315000027A094E80300029583E80300ADF8045006F0B0
S315000027B0B1FB034669460820059300F0B7F82846A2
S315000027C0CBE7D520C9E700F08BF8E0E79831002089
S315000027D0B8240020E8240020C378082B17D85B0013
S315000027E010B503F1010C144C5FFA8CFC14F80CC004
S315000027F092B0BCF1060F0CD1104B0A7803931A72F3
S315000028000A22497805925972C3785B0005E00020D8
S315000028107047039105921FFA8CFC0949013302782F
S3150000282051F8233001A88DF82820ADF826C0029370
S3150000283000F010FE12B010BDC0D5000090030020BD
S3150000284018030020092900D97047FEF765BF00BFAD
S31500002850092901D90020704708B5FFF7CDF900F026
S31500002860030008BD09290FD810B541B10446FFF78A
S315000028702BF92046FFF774F9C0F30A0010BDFFF7E5
S31500002880DFF8C0F30A0010BD00207047092901D9FE
S315000028900020704710B50446FFF716F92046FFF7EB
S315000028A02BF900F0100010BD092901D9002070474E
S315000028B010B50446FFF708F92046FFF71DF900F4A6
S315000028C0404010BD092900D9704738B50C46054669
S315000028D0FFF7E4F921462846BDE83840FFF700BA7D
S315000028E0092900D970470122FFF752BA092900D9F0
S315000028F0704738B50C460546FEF72CFC214628469F
S31500002900BDE838400222FFF76FBA00BF08B5FEF7F0
S31500002910CDFC00F00700013880B2032896BF024BB9
S31500002920002033F8100008BDD0D500002DE9F0478F
S315000029308E46374DDFF8E8A0B5F80080887108EBC1
S31500002940C80C0AEB8C0C0F46441EBEE80F00ACE820
S315000029500F00BEE80F00ACE80F00DEF80030464678
S315000029604FEAC809CCF800300C2C14D8DFE804F084
S315000029700713071F1F07073427270707070039789C
S315000029800022244B09EB080053F821300AEB8000A3
S31500002990114698472E88204B0136A3FB0623DB08F9
S315000029A003EB8303A6EB43032B80BDE8F08739785E
S315000029B01A4B33F811309BB2012BE1D1EBE73A7891
S315000029C0144B09EB080053F82230796900220AEB10
S315000029D0800098472E88DEE73C78104B33F8143099
S315000029E09BB2012BD7D07A8A09EB08000AEB80004C
S315000029F032B9084B114653F8243098472E88CAE757
S31500002A00044B0022796953F8243098472E88C2E790
S31500002A10982100207C2D0020CDCCCCCC98310020F4
S31500002A20842D0020F0B5012883B02CD1254A1388C7
S31500002A309BB21BBB244D254E05F15007A6F114048D
S31500002A40002204210A2004F03DFB44F8040B90B355
S31500002A50B442F5D1A5F12804002204210A2004F08D
S31500002A6031FB44F8040F30B3AC42F5D12835BD42F2
S31500002A7006F11406E2D1002003B0F0BD53889BB2E4
S31500002A80002BD7D0F7E7002204210A2004F01AFB16
S31500002A900F4B186090B104240E48002301904FF4A8
S31500002AA000720D490D48009405F0C8FE0128BDD0FE
S31500002AB0032003B0F0BD022003B0F0BD012003B037
S31500002AC0F0BD00BF9831002010220020D821002040
S31500002AD0BC210020C0210020D8D50000DD2F000039
S31500002AE0B9B138B5002540F6B833AA4208BF1A4630
S31500002AF0094B0D6053F820300C46186804F09EFE12
S31500002B00012801D0FF2038BD2368002BFAD02846C3
S31500002B1038BDFF20704700BF9C03002000B583B07E
S31500002B20019151B10023094A01A952F820201068E9
S31500002B301A4604F08FFB012803D0FF2003B05DF88E
S31500002B4004FB002003B05DF804FB00BF9C030020DB
S31500002B5010B5002484B00191039451B10D4A234667
S31500002B6052F8201003AA086801A904F043FD0128C1
S31500002B7002D0FF2004B010BD03980028FAD04FF011
S31500002B808052054B5A60BFF34F8FBFF36F8F2046BD
S31500002B9004B010BD9C03002000ED00E030B50C46EB
S31500002BA083B090F8245004F065F9631E082B11D801
S31500002BB005EB850104EB4104074D03E0019848B19C
S31500002BC004F058F9002255F8240001A904F036FE55
S31500002BD00128F3D003B030BDEC21002070B50C46BF
S31500002BE082B090F8245004F045F9631E042B10D8E7
S31500002BF005EB8505084E2C4403E0019848B104F026
S31500002C0039F9002256F8240001A904F017FE01281C
S31500002C10F3D002B070BD00BFC42100204B1E082BAC
S31500002C2000D9704710B500EB8002124B01EB420150
S31500002C3082B00446002253F8210001A904F0FEFDEB
S31500002C40012801D002B010BD019B002BFAD00A4A20
S31500002C50002332F81420094C92B2012A18BF05202D
S31500002C6054F820001A4601A9006804F0F3FA02B0ED
S31500002C7010BD00BFEC210020983100209C030020ED
S31500002C8010B54B1E82B0082B01900ED88C4600233F
S31500002C9090F82400064C00EB80000CEB400C1A4622
S31500002CA054F82C0001A904F0D5FA02B010BD00BFFB
S31500002CB0EC21002070B50125144600221C4B1D8016
S31500002CC01C4B18601C482023016011462046FEF765
S31500002CD083FA00212046FEF7A9FC00212046FEF7D4
S31500002CE0FBFD00212246084600F0BAFD01280546F4
S31500002CF005D020F00206B6B25EB1284670BD204669
S31500002D000021FFF79FFD20460021FFF7E9FD284639
S31500002D1070BD31462046FEF739FD31462046FFF7A5
S31500002D2091FD20463146FFF7DBFD284670BD00BF0A
S31500002D30B8240020482100207021002038B5012445
S31500002D400D460F4900230C8014460E4A19461060A2
S31500002D500D481A4605602046FEF73EFA2046002139
S31500002D60FEF764FC20460021FEF79CFC204600216D
S31500002D70FFF768FD2046BDE838400021FFF7B0BDEB
S31500002D80B8240020482100207021002038B50C46C8
S31500002D9000210546184A194B204611801980FEF776
S31500002DA025FD00212046FEF799FC00212046FEF76E
S31500002DB0CFFC94F824300021012B0CBF4FF40062A5
S31500002DC04FF480622046FEF779FB25F00203052BBF
S31500002DD007D0082D0AD094F82400BDE83840FFF744
S31500002DE031BC2046BDE83840FFF7DABA2046BDE8D8
S31500002DF038400021FEF7AEB9B8240020E8240020B0
S31500002E0003464FF0010C00B5074A8BB093F8243007
S31500002E10032001A9A2F800C08DF80430FFF786FD53
S31500002E200BB05DF804FB00BF40220020034600B54E
S31500002E308BB093F82430042001A98DF80430FFF7F5
S31500002E4075FD0BB05DF804FB034600B58BB093F837
S31500002E502420DB69052001A98DF804200693FFF7DD
S31500002E6065FD0BB05DF804FB704700BF094B1A887F
S31500002E70012A00D07047002200B58BB090F824C01C
S31500002E8001A906208DF804C01A80FFF74FFD0BB08C
S31500002E905DF804FB402200202DE9F047374B8046C1
S31500002EA01A880C46012A8AB055D001AFC02C344B83
S31500002EB044D09D68002D5AD002226A70DB681BB18F
S31500002EC007225A7005B9FEE7EB78AE7898F8240029
S31500002ED006EB032601F0D2F82C78B6B2A64288BFDC
S31500002EE04FF0000908D816E0052B1FD09AF80030DD
S31500002EF01C44A4B2A6420ED9631C9BB2EB5C05EB44
S31500002F00040A042BF0D19AF800309AF805901C4474
S31500002F10A4B2A642F0D898F82430394601208DF89C
S31500002F200430FFF703FD0AB0BDE8F08705EB040A9D
S31500002F304A464146504601F03BF8D7E7D3E9022519
S31500002F40CAB107215170DB68002BBBD002225A7030
S31500002F50002DB8D0B8E7002290F8241001AF8DF804
S31500002F600410062039461A80FFF7E0FC9EE7DB686E
S31500002F70002BA5D1A7E72B46E6E700BF402200209D
S31500002F804424002038B50446458CFFF7C3F90128D0
S31500002F900AD0294620461DB1FFF700FE002038BDA5
S31500002FA0FFF71CFE002038BD0B4B294653F82520A1
S31500002FB020461AB1FFF764FE002038BD43F82540CD
S31500002FC0FFF764FC18B9284600F0D6FCE6E7284669
S31500002FD000F018FCE2E700BF302000202DE9F04F9A
S31500002FE07F4DDFF80CA27F4CDFF80892DFF80882ED
S31500002FF07D4F83B04FF47A72052001A9FFF770FD6B
S315000030000028F7D16FF4A872019E338C1344042B69
S31500003010F0D801A252F823F0553000004D300000E0
S3150000302041300000F52F00002D30000096F82400F6
S31500003030FFF774FA019B93F82400FFF779F9D9E7B3
S3150000304032460821708CFFF7FFF9D3E73046FFF7C9
S3150000305099FFCFE7738C318D013B142BCAD801A29F
S3150000306052F823F0473100003F31000037310000AD
S31500003070F52F0000F52F0000F52F0000F52F0000BA
S31500003080F52F0000F52F0000F52F0000F52F0000AA
S31500003090F52F0000F52F0000F52F0000F52F00009A
S315000030A0F52F0000233100000F310000F52F00003E
S315000030B0F7300000B930000011F0070B52D1BAF812
S315000030C00030012B00F08480484B1B8813F0600F02
S315000030D000F082802380B9F800306380B8F80030B1
S315000030E0A3803B88E380EB6A002B83D032465946A7
S315000030F0204698477EE701F07003402B2ED026D855
S31500003100102B7FF477AF304601F028F972E76B6A2F
S315000031101BB100223046114698473046FFF72EF97C
S3150000312068E796F8240001F071FA4028304633D05B
S3150000313001F03EF95EE7304600F016FA5AE73046EF
S3150000314000F018FA56E7304600F0DEF952E7602B39
S3150000315004D001F05002502A7FF44CAF304601F003
S315000031601FFA47E701F00502012A10D0BBF1050F4F
S315000031700DD01E4B1B8813F0600FABD10BF1FF3146
S31500003180052920D8DFE801F00F13171B0B1F96F84F
S315000031902400FFF79BF8ECE701F0FEF82AE730463B
S315000031A001F070FC26E7304601F01CFB22E73046B2
S315000031B001F006FE1EE7304601F062FC1AE73046D3
S315000031C001F05CFE16E731460720FFF7DFFD11E749
S315000031D03046FFF7D1F877E7304601F0C3FA09E742
S315000031E044240020C4240020C0240020CC24002035
S315000031F0EA240020CE240020BE240020002110B4A2
S31500003200054C064B21804FF4FF7205485DF8044BD0
S31500003210198006F040BC00BF42240020BA240020DA
S31500003220442200208446044B4FF4FF7200210348D9
S31500003230A3F800C006F02FBC422400204422002040
S315000032404FF0FF104FF0FF11084BC3E90001C3E92F
S315000032500201C3E90401C3E90601C3E90801C3E9A0
S315000032600A01C3E90C01C3E90E0170477824002066
S31500003270014B9B68187970474424002000B5134B16
S31500003280996891F800E091F802C00EEB0102C97846
S315000032904CEA012CE64514D21FFA8EF34FF0000ECD
S315000032A05178042904D19178814208BF92F803E04D
S315000032B011780B449BB263450A44F1D370465DF81E
S315000032C004FB4FF0000E70465DF804FB442400201A
S315000032D02DE9F041244B9B68DD7893F802E01C78D9
S315000032E00EEB052E1FFA8EFE7445234434D20026BB
S315000032F0A2B2B04634461D4F1BE0BCF1050F12D1F9
S31500003300B44210D29D7893F902C005F00F054FEA3A
S31500003310DC7C05EB0C1508EB040C5FFA8CFC013425
S3150000332027F815C0A4B21D782A4492B272452B44E0
S3150000333012D293F801C0BCF1040FDED19D7885420C
S315000033400CD093F804C0C4441FFA8CF81D782A44A4
S31500003350D2B272452B44ECD3BDE8F081DD788D42C4
S31500003360EFD11E79F2E700BF442400207824002024
S31500003370044B188820B1044B9B68D879C0F34010E1
S31500003380704700BF4224002044240020024B9B6863
S31500003390D879C0F38010704744240020092800D94A
S315000033A0704738B50446154600F026FB032819D8A1
S315000033B0DFE800F0110A020338BD2A462046BDE8C0
S315000033C038400521FFF740B82A462046BDE8384078
S315000033D0042100F089BB2A462046BDE83840032177
S315000033E000F082BB2A462046BDE838400721FFF799
S315000033F02BB800BF092800D9704770B504460E46A1
S31500003400154601461046FEF769F92A46314620461A
S3150000341000F026FA012809D821462846FEF7B6F913
S3150000342021462846BDE87040FFF70CBA022809D1AC
S3150000343021462846FEF736F921462846BDE8704063
S31500003440FFF700BA2A462046BDE870400721FEF77E
S31500003450FBBF00BF38B5438CD3B1044600224FF4FE
S31500003460A97344202260238403F046FC054678B104
S315000034702146442206F002FB05F04CFD0346294690
S315000034800520EB61FFF74AFB044620B9204638BD0C
S31500003490FF24204638BD284603F0ECFC204638BD04
S315000034A04A6830B4D2E90051D468D1B190680E4B65
S315000034B0C3E90054C3E9021015690C4C0C480D49C8
S315000034C0127DC3E90454C3E906010B4C0B490C48B1
S315000034D0C3E908410B4983F83020C3E90A0130BC2F
S315000034E0704791680846E2E744240020992E0000C0
S315000034F0012E00006D2E00002D2E0000492E00002A
S31500003500692E00001D4F0000CB0711D50021024691
S3150000351010B50446084600F06FFA032812D009D801
S31500003520022819D02046BDE810400021FEF7D6B883
S3150000353000F0E0BAFF2815D12146BDE8104007206B
S31500003540FFF724BC20460021FEF770F82146BDE8AF
S3150000355010400520FFF71ABC2046BDE810400021A8
S31500003560FFF7BEB910BD00BFCB0700D5704700F00E
S31500003570C7BB00BFCB0717D50021024610B50446CE
S31500003580084600F06DF9022811D005D82046BDE89E
S3150000359010400021FEF72AB9FF2807D12146BDE8D1
S315000035A010400720FFF7F2BB00F0D6BB10BD204647
S315000035B0BDE810400021FFF793B900BF194AF8B5DE
S315000035C01688731C03F01F0313803401EFF3038383
S315000035D0154A103B5BB252F82350A878FEF78EFFCF
S315000035E040F25112114BA01903EB80042284AA78F1
S315000035F0800000F1380684F8242003EB060C00F165
S3150000360028012230D5E90975184419449F51CCF890
S315000036100450FEF761FD2146BDE8F8400520FFF79E
S3150000362097BA00BFEE240020E4310020F0240020E9
S315000036302DE9F04104461546104688462146FDF719
S3150000364089FD21462846FEF749F821462846FEF719
S315000036507FF8164E21462846FEF7C8F8214628462A
S31500003660FDF7E4FD56F82470F7B1114B214653F8E7
S31500003670243028463B61A7F82880FEF7BDFA0022D1
S31500003680014656F8240043687985114644849847D4
S3150000369056F8240003F0EEFB0020214646F82400ED
S315000036A0BDE8F041FFF7BABABDE8F081302000204E
S315000036B04821002010B54FF0640E91F824204C4BA1
S315000036C0C1080EFB023EBEF80AC001F01004BCF1B0
S315000036D0010F00F00F0141EA040136D0642000FB1F
S315000036E00230848A012C3CD0642000FB0230C48B5B
S315000036F0012C3ED0642000FB0230048D012C40D00A
S31500003700642000FB0230448E012C42D0642000FB72
S315000037100230848F012C44D0642000FB0230B0F8C4
S315000037204640012C45D0642000FB0230B0F85040E2
S31500003730012C47D0642000FB0233B3F85A20012A3B
S3150000374049D04FF0FF0C604610BDBEF80C0000F0EB
S315000037501F008142F7D0642000FB0230848A012CCE
S31500003760C2D1C08A00F01F008142BDD14FF0020CC9
S31500003770E9E7008C00F01F008142BBD14FF0030C3B
S31500003780E1E7408D00F01F008142B9D14FF0040CF3
S31500003790D9E7808E00F01F008142B7D14FF0050CAB
S315000037A0D1E7C08F00F01F008142B5D14FF0060C63
S315000037B0C9E7B0F8480000F01F008142B3D14FF0CE
S315000037C0070CC0E7B0F8520000F01F008142B1D1EB
S315000037D04FF0080CB7E7B3F85CC00CF01F0C61455E
S315000037E014BF4FF0FF0C4FF0090C604610BD00BF30
S315000037F0802000200020704708B5FDF723FDC0F3A8
S31500003800C01008BD092800D9704770B50446114B91
S31500003810014653F8205028462E69FDF79BFC0E4BB7
S31500003820AA6843F824600D4B214643F82420284615
S31500003830FEF752F821462846FEF706F820462A46A5
S315000038400021FFF7D7FD21462846BDE87040FFF767
S3150000385047B800BF302000204821002070210020FA
S315000038602DE9F04F092883B058D8154650EA0102D1
S3150000387004460E4666D00A46002301462846FDF752
S315000038807DFCFF284AD021462846FDF735FB074632
S31500003890DFF8DC9021462846FEF7E4FF59F824308D
S315000038A0BB46BB422AD94FF0020821462846FEF7FE
S315000038B0CFFF0346DFF8BCA0214628460193FDF75B
S315000038C049FC2B46314638465AF82420FEF76CFD53
S315000038D059F824304AF824009B4525D8DB1B49F8C3
S315000038E0243021462846FDF7F7FF019B03F003032A
S315000038F0012B31D0404603B0BDE8F08F43B39FB2F1
S31500003900B7FBF0F800FB18701FFA80F8B8F1000F4B
S315000039102AD1002C08BF4FF00208C6E74FF0FF0877
S31500003920404603B0BDE8F08F00233146284649F8EB
S315000039302430FDF709FE0304D3D431462846FDF7AB
S315000039403DFECEE7202311462846FDF717FC98E7F3
S315000039501F464FF00108A8E728462146FEF7C0FF9C
S31500003960404603B0BDE8F08F4FF001089DE700BF69
S315000039704821002070210020092800D970471B4BE0
S3150000398070B553F820600446014630463569FDF7A8
S31500003990E1FB0023164AB16842F82450154A304626
S315000039A042F8241021461A46FDF716FC21463046F9
S315000039B0FEF758FF4DB1B5FBF0F200FB125595B975
S315000039C02146304692B2FDF71DFC21463046FEF7F1
S315000039D087FF21463046FDF765FE21463046BDE8A5
S315000039E07040FEF72FBF0132EAE700BF302000200B
S315000039F0482100207021002009282DE9F04734D8FD
S31500003A00164604460A468946002301463046FDF717
S31500003A10B5FBFF2829D0324FC0F30B0521463046AF
S31500003A20FEF720FF57F82430AA46AB422DD33CD0F0
S31500003A3005B3B5FBF0F300FB135080B2002847D165
S31500003A404FF002082846274D3346494655F82420AC
S31500003A50FEF7D8FC45F8240057F824304046A3EB7F
S31500003A600A0347F82430BDE8F0874FF0FF084046C8
S31500003A70BDE8F08721463046FDF76CFB4FF00108A4
S31500003A8049463046FDF7D2FDE6E721463046FDF7CA
S31500003A9061FB57F824304FF003089AB2924647F874
S31500003AA02450002DECD01546CCE74CB9B5FBF0F30D
S31500003AB000FB135080B218B92A464FF00208F0E70F
S31500003AC021463046FDF746FB4FF000082A46E8E758
S31500003AD021463046FDF73EFB4FF00108B2E700BF36
S31500003AE04821002070210020092800D97047FFF7DF
S31500003AF09FBD00BF38B58B070C46054600F1CB804D
S31500003B00600700F1B180210700F19780E2067DD4BD
S31500003B10A30665D460064CD4210633D4E2051AD434
S31500003B20A30500D438BD09212846FDF7D5FE734B01
S31500003B305B6A002BF6D009212846FEF7A7FE10285F
S31500003B402A464FF000014FF0090000F0D280BDE890
S31500003B503840FFF723BC08212846FDF7BDFE674B1A
S31500003B601B6A002BDCD008212846FEF78FFE1028A2
S31500003B702A464FF000014FF0080000F0B780FFF72B
S31500003B800DFCCDE707212846FDF7A6FE5B4BDB695A
S31500003B90002BC3D007212846FEF778FE10282A46B8
S31500003BA04FF000014FF0070000F09D80FFF7F6FB95
S31500003BB0B4E706212846FDF78FFE504B9B69002B84
S31500003BC0AAD006212846FEF761FE10282A464FF0A5
S31500003BD000014FF0060000F08380FFF7DFFB9BE754
S31500003BE005212846FDF778FE444B5B69002B91D0F2
S31500003BF005212846FEF74AFE10282A464FF0000106
S31500003C004FF0050069D0FFF7C9FB83E7042128467A
S31500003C10FDF762FE394B1B69002B3FF479AF042197
S31500003C202846FEF733FE10282A464FF000014FF0D3
S31500003C3004004FD0FFF7B2FB6AE703212846FDF7E1
S31500003C404BFE2E4BDB68002B3FF460AF032128466A
S31500003C50FEF71CFE10282A464FF000014FF0030025
S31500003C6035D0FFF79BFB51E702212846FDF734FECE
S31500003C70224B9B68002B3FF446AF02212846FEF7F5
S31500003C8005FE10282A464FF000014FF002001BD017
S31500003C90FFF784FB37E70121FDF71EFE174B5B6834
S31500003CA0002B3FF42DAF01212846FEF7EFFD10282B
S31500003CB02A464FF000014FF0010002D0FFF76EFBDD
S31500003CC01EE7FFF797FB1BE7FFF794FB1BE7FFF7E2
S31500003CD091FB1BE7FFF78EFB1AE7FFF78BFB19E754
S31500003CE0FFF788FB18E7FFF785FB17E7FFF782FB6F
S31500003CF016E7BDE83840FFF77DBB00BF3020002047
S31500003D002DE9F843012480460D462746DFF8449006
S31500003D1007FA04F31D42A6B209D059F8243033B18C
S31500003D2031464046FEF7C0FDB0F5404F04D00134A1
S31500003D300A2CEDD1BDE8F8834046FDF7F1FD10F4FD
S31500003D40004F4246304614BF05210721FEF77CFB93
S31500003D50EDE700BF302000202DE9F8438B070D4624
S31500003D6006460CD5904B5B684BB190F824308F4CCF
S31500003D7003EB830304EB83035B88012B5FD16A07A4
S31500003D800CD5894B9B684BB196F82430874C03EBD6
S31500003D90830304EB83039B88012B6AD128070DD587
S31500003DA0814BDB6853B196F82430804C03EB8303D8
S31500003DB004EB8303DB88012B40F08E80EB060CD5E9
S31500003DC0794B1B694BB196F82430784C03EB83038F
S31500003DD004EB83031B89012B65D1A9060DD5724B14
S31500003DE05B6953B196F82430704C03EB830304EB04
S31500003DF083035B89012B40F0888006244FF001087D
S31500003E00DFF8A49108FA04F31D42A7B20ED059F8C0
S31500003E1024305BB139463046FEF71AFD10F0020F2A
S31500003E203246384607D00621FEF70EFB01340A2C2F
S31500003E30E8D1BDE8F8830121FFF7FAFBF6E7012197
S31500003E40FEF706FD87076CD401213046FDF7D4FE48
S31500003E5040044FF0010100F1A38096F82430324669
S31500003E6003EB830304EB830408466180FFF7E0FB62
S31500003E7085E702213046FEF7EBFC830757D4022183
S31500003E803046FDF7B9FE470400F18580012196F81A
S31500003E902430324603EB830304EB83040220A18023
S31500003EA0FFF7C6FB7AE704213046FEF7D1FC870709
S31500003EB049D404213046FDF79FFE400466D4012113
S31500003EC096F82430324603EB830304EB8304042084
S31500003ED02181FFF7ADFB80E703213046FEF7B8FCF2
S31500003EE081072AD403213046FDF786FE420448D4D2
S31500003EF0012196F82430324603EB830304EB830456
S31500003F000320E180FFF794FB58E705213046FEF7D2
S31500003F109FFC82071DD5324606210520FEF794FA3E
S31500003F206BE7324606210120FEF78EFA27E7324676
S31500003F3006210220FEF788FA30E7324606210320E2
S31500003F40FEF782FA3AE7324606210420FEF77CFAAB
S31500003F5043E705213046FDF74FFE43040CD401210B
S31500003F6096F82430324603EB830304EB83040520E2
S31500003F706181FFF75DFB40E705213046FDF706FC52
S31500003F803BE703213046FDF701FC17E704213046E5
S31500003F90FDF7FCFB21E702213046FDF7F7FBFDE6C6
S31500003FA03046FDF7F3FBEAE63020002058200020DB
S31500003FB04378052B0AD110B5C37803F00303022B0F
S31500003FC01DD0032B05D00023184610BD002318462C
S31500003FD0704790F9023090F802C0002BF3DA022AFB
S31500003FE0F1D1642391F82410224A03FB01239B8F0D
S31500003FF0002BE8D14FF0060E1F4C734614E090F9E3
S3150000400002E090F802C0BEF1000F22DB0A2ADAD1E4
S31500004010642491F82410174A04FB0124A48A002C76
S31500004020D1D19E464FF485440CF00F0C44EA0C0C9B
S31500004030642404FB01F101240EEB8E0E01EB4E010C
S31500004040808854520A440021A2F802C0D08011810F
S31500004050BAE70A2AB7D1642391F82410054A03FB6C
S3150000406001235B89002BAED14FF0010E44F21024E0
S315000040707346D9E7802000201080FFFF642200FBF2
S3150000408002F2384B10B499184989012904D100214C
S315000040900A329C1D99501151642200FB02F29918B4
S315000040A0898A012904D100212F4C143299501151CB
S315000040B0642200FB02F29918C98B012904D1002160
S315000040C0294C1E3299501151642200FB02F29918B4
S315000040D0098D012904D10021234C28329950115110
S315000040E0642200FB02F29918498E012904D10021AD
S315000040F01D4C323299501151642200FB02F299187C
S31500004100898F012904D10021174C3C329950115155
S31500004110642200FB02F29918B1F84610012904D175
S315000041200021114C463299501151642200FB02F2D3
S315000041309918B1F85010012904D100210A4C5032C7
S3150000414099501151642202FB00F01A18B2F85A2055
S31500004150012A04D1002204495A301A5042505DF80F
S31500004160044B704780200020862000202DE9F04176
S31500004170012464270546244E02E001340A2C2BD084
S3150000418095F8242004EB840307FB02F202EB4303B9
S31500004190F35A012BF1D100212846FDF717F91FFA32
S315000041A084F800F00F00404518D001212846FDF79D
S315000041B00DF900F00F0040451ED002212846FDF7FC
S315000041C005F900F00F0040450FD04146284601345E
S315000041D0FCF7AAFE0A2CD3D1BDE8F08100232846BD
S315000041E01A461946FCF7F8FFDFE7002302222846A5
S315000041F01946FCF7F1FFE8E7002301222846194695
S31500004200FCF7EAFFD9E700BF80200020642238B51A
S31500004210514C90F82430054602FB0342518901298E
S3150000422033D0642202FB0342928A012A37D06422E9
S3150000423002FB0342D28B012A3DD0642202FB0342D9
S31500004240128D012A43D0642202FB0342528E012AB8
S3150000425049D0642202FB0342928F012A4FD0642286
S3150000426002FB0342B2F84620012A55D0642202FB23
S315000042700342B2F85020012A5BD0642202FB0344B9
S31500004280B4F85A30012B61D038BDFCF7F5FE642234
S3150000429095F8243002FB0342928A012AC7D10221F3
S315000042A02846FCF7E9FE642295F8243002FB034217
S315000042B0D28B012AC1D103212846FCF7DDFE6422F8
S315000042C095F8243002FB0342128D012ABBD104214A
S315000042D02846FCF7D1FE642295F8243002FB0342FF
S315000042E0528E012AB5D105212846FCF7C5FE642267
S315000042F095F8243002FB0342928F012AAFD10621A2
S315000043002846FCF7B9FE642295F8243002FB0342E6
S31500004310B2F84620012AA9D107212846FCF7ACFEAF
S31500004320642295F8243002FB0342B2F85020012A99
S31500004330A3D108212846FCF79FFE642295F8243075
S3150000434002FB0344B4F85A30012B9DD12846BDE840
S3150000435038400921FCF790BE8020002038B504467D
S315000043600C4D00F073F9FEF749FF2046FEF7CEFA32
S315000043706B691BB101460022204698472046002162
S31500004380FDF746FB2B682046D979BDE83840FDF796
S3150000439073BB00BF4424002010B504460A20FDF775
S315000043A047FE94F82400BDE81040FEF7CFB800BFE2
S315000043B070B5054690F82400FEF7DCF8642200216B
S315000043C0734C95F82430734802FB03425689724AAF
S315000043D0012E0180118042D0642202FB0342928AA0
S315000043E0012A4DD0642202FB0342D28B012A58D007
S315000043F0642202FB0342128D012A63D0642202FB6F
S315000044000342528E012A6ED0642202FB0342928F2F
S31500004410012A79D0642202FB0342B2F84620012A1F
S3150000442000F08580642202FB0342B2F85020012A84
S3150000443000F09080642202FB0344B4F85A30012B4A
S3150000444000F09B80554BDB691BB100221E212846DC
S31500004450984795F82400BDE87040FEF76FB82A46E5
S3150000446008213046FDF7F0FF31462846FCF704FEEA
S31500004470642295F8243002FB0342928A012AB1D1C4
S315000044802A4608210220FDF7DFFF02212846FCF715
S31500004490F3FD642295F8243002FB0342D28B012AF5
S315000044A0A6D12A4608210320FDF7CEFF0321284680
S315000044B0FCF7E2FD642295F8243002FB0342128DDC
S315000044C0012A9BD12A4608210420FDF7BDFF0421BD
S315000044D02846FCF7D1FD642295F8243002FB0342FE
S315000044E0528E012A90D12A4608210520FDF7ACFFFD
S315000044F005212846FCF7C0FD642295F8243002FB0E
S315000045000342928F012A85D12A4608210620FDF70B
S315000045109BFF06212846FCF7AFFD642295F8243060
S3150000452002FB0342B2F84620012A7FF47BAF2A46FB
S3150000453008210720FDF788FF07212846FCF79CFD88
S31500004540642295F8243002FB0342B2F85020012A77
S315000045507FF470AF08212A460846FDF775FF08214B
S315000045602846FCF789FD642295F8243002FB0344B3
S31500004570B4F85A30012B7FF465AF082109202A468A
S31500004580FDF762FF09212846FCF776FD5AE700BFD2
S315000045908020002042240020BA2400204424002049
S315000045A070B5044690F82400FEF708F894F8240045
S315000045B0FDF73AF905462046FCF75EFE6B0603D585
S315000045C000F00300012809D094F82400FEF71AF839
S315000045D094F82400BDE87040FEF704B894F824006F
S315000045E0FDF7ACFF00F034F8054B1B6A33B1054903
S315000045F02046BDE8704000220988184770BD00BFFC
S3150000460044240020BA240020FDF7CABE70B5064631
S315000046103046FDF709F905460A20FDF705FD304647
S31500004620FDF702F904460A20FDF7FEFC3046FDF7C9
S31500004630FBF885EA040344401C432306E8D415F03E
S31500004640800F14BF4020432070BD00BF704700BFDD
S31500004650704700BFF8B50F4600210C4628250646D0
S3150000466040222C4805F017FA21464FF4FF722A48DB
S3150000467005F011FA294B21461C80294B34221C8057
S31500004680284B29481C80294B1C80294B1C80294B10
S315000046901C80294B1C80294B1C80294B1C605C60AC
S315000046A0284B1C6005F0F7F92A462146264805F0F6
S315000046B0F2F92A462146254805F0EDF94FF00E0C91
S315000046C0234B2A46234D21462C606C60AC60EC607F
S315000046D02C61214883F806C083F82AC083F84EC0AF
S315000046E083F872C083F896C083F8BAC083F8DEC038
S315000046F083F802C183F826C183F84AC105F0CBF9D5
S31500004700164B174A3946304614801C80BDE8F840DF
S31500004710FEF7C6BE7824002044220020EC240020A8
S31500004720CC240020CE24002044240020BE240020D7
S31500004730C0240020B8240020E824002040220020C5
S31500004740C4240020D024002070210020482100200D
S31500004750842D0020D424002030200020BA240020FC
S31500004760422400202DE9F0410025174B174A1B88EB
S31500004770158003F47F43B3F5106F0ED0B3F5306F99
S3150000478019D1134B9B6AB3B1124A134914882A46AE
S3150000479031F81410BDE8F0411847104E104F04468A
S315000047A03088B7F80080FEF73DFD3388434502D0D8
S315000047B0074B9B690BB9BDE8F0812A46204639882C
S315000047C0BDE8F041184700BFCC240020E8240020B3
S315000047D044240020BE24002044220020CE240020B1
S315000047E0422400208E4B0246198801F47F43B3F51C
S315000047F0006F5AD030B583B017D8002B31D0B3F53F
S31500004800C06F35D111F01F0338D1864B19880B0ABA
S31500004810013BCCB2062B2BD8DFE813F07900B500AC
S31500004820A6002A002A00C6008600B3F5206F1FD115
S3150000483001F01F0101291BD17A4B1B88C3B97A4BA2
S315000048401888012814D1794B1B88FE2B10D8784C78
S31500004850784934F813300B7003B0BDE83040FEF7EA
S3150000486029BA704B1B881BB96F4C2488022C30D098
S31500004870104603B0BDE83040FDF792BD012BF7D1DD
S315000048806A4B6D481B88674C674D83806B4B248849
S315000048900180DB6A29884480C180002B00F09E805D
S315000048A0002103B0BDE83040184760485D4BB0F8C2
S315000048B000C01B8801F01F0043EA0C01014389B2C6
S315000048C021B9594B1888012800F082801046FDF75F
S315000048D067BD5B4C01F01F010129238000F0908029
S315000048E002297DD00029C3D1504B1B88002BBFD194
S315000048F00190FEF74BFD534B20701B88019A012B4C
S3150000490004BF40F00200207002204D49A4E7474B47
S315000049101B882343ACD14949434B096818880B7857
S31500004920834299D8184697E70190FEF765FF01285C
S31500004930019A9DD13D4B1B88234399D11046FDF723
S31500004940E5FF3E4B384CD3E90213C02818BF194681
S315000049502488C8788B78019A03EB002398B2A0428A
S315000049607FF67AAF204677E7344B93F83010A142B2
S315000049707FF67EAF19692C4B51F8241018880B78F6
S315000049808342CFD968E7294B1B8823437FF470AF56
S315000049900190FDF7BBFF244C284B2488D3E9021372
S315000049A0C02808BF1946D4E70190FEF725FF012865
S315000049B0019A7FF45DAF1D4B1B8823437FF458AFEC
S315000049C01E49194B496818880B788342AAD943E7D0
S315000049D01D4B1E491B880B70FEF76CB903B030BD2A
S315000049E0124D2B881B0733D190F824000192FDF756
S315000049F05BF810F0020F019A86D00123237083E73B
S31500004A000190FDF787FC0128019A7FF431AFFEF78C
S31500004A102FFC064B019A1B888342FFF475AF27E7EC
S31500004A20CC240020CE240020C0240020BE24002058
S31500004A3044220020702D0020C4240020442400209D
S31500004A40782D0020BA24002042240020742D002056
S31500004A500190FDF75FFC0128019A7FF409AF11462A
S31500004A602888FEF727FEFF280146019A3FF400AF8B
S31500004A701046FDF7EDFE10F0020F019ABDD143E797
S31500004A80FDF78EBCF0B5A64D04462A888DB002F41B
S31500004A907F43B3F5A06F00F089801DD9B3F5106F81
S31500004AA000F09580B3F5306F09D1FDF733FC01288E
S31500004AB005D12B8803F01F03012B00F0C080204690
S31500004AC0FDF76EFC974E3388012B2AD02146002035
S31500004AD0FEF75CF90DB0F0BDB3F5807F4AD0B3F5B3
S31500004AE0407FECD1904B1B88002BE8D112F01F02BF
S31500004AF000F0E380022AE2D18C4B1B88002BDED12A
S31500004B008B4B1888020707D02146FEF7D3FDFF28F6
S31500004B10D5D02146FDF73EFC00212046FDF7E0FEFC
S31500004B20D0E78F2300272A888DF80F3094F8243099
S31500004B30ADF818208DF80C307C497D4A7A4B1288E6
S31500004B4009881B88ADF81C20ADF81A10ADF81E3088
S31500004B500597ADF8107004F0DDF9034603A90820A7
S31500004B600893FDF7E3FE214600203780FEF70EF995
S31500004B700DB0F0BD6C4B1B88002BA0D112F01F02AC
S31500004B8000F08580022A9AD1684B1B88002B96D1AB
S31500004B90674B1B8813F00F0140F098800191FDF7D9
S31500004BA0A5FE20460199FDF79BFE8BE7604B5E490B
S31500004BB01B88098802F01F020B431A4392B2002A8F
S31500004BC07FF47DAF594B1B887F2BA5D977E7D3069A
S31500004BD07FF475AF574B554F9A683B8852799A4286
S31500004BE002D0002B7FF46BAF514A4F4B16881988C1
S31500004BF00E43B6B2002E7FF462AF31462046FDF773
S31500004C006FFE3B88002B3FF45DAF4B4A12889A42F9
S31500004C103FF458AFFEF714FBFEF72AFB074638B100
S31500004C20304600210136FEF753FBB0B28742F8D872
S31500004C302046FFF7EBFA2046FFF798FA42E7FEF721
S31500004C4017FB3B4E33889842FFF439AF364A178834
S31500004C50002F7FF434AF1846FEF710FB334B1B884A
S31500004C609842FFF42CAF32883946344FDBB22046E7
S31500004C7027F81230FDF734FEFEF7E2FA308837F8EF
S31500004C801010FEF725FB2046FFF770FA1AE7274BB0
S31500004C901B88012B7FF413AF254B1E88002E7FF453
S31500004CA00EAFFEF765FB01287FF409AF244B3146B2
S31500004CB020461E80FDF714FE04E71C4B1B88012BC3
S31500004CC05AD0022B42D0FFF79FFCFBE6014618465E
S31500004CD0FEF7F0FCFF2806463FF4F1AE01462046FB
S31500004CE0FDF7B6FD01283146204656D0FDF7FEFDFC
S31500004CF031462046FDF712F800212046FDF7F0FD6B
S31500004D00104B33F81620012A7FF4DCAE00220E4940
S31500004D1020460F6823F816201146B847D2E600BF92
S31500004D20CC240020E8240020C0240020CE2400202B
S31500004D30BE240020442400204224002044220020D7
S31500004D40BA240020D4240020D0240020FDF7DEFD64
S31500004D50C0287FF4B4AE164B1B88A3F5804211041D
S31500004D607FF5ADAE01261349134A0B80204600217C
S31500004D701680FDF7B5FDA5E60D4B1E88002E7FF4C7
S31500004D809EAEFEF7F5FA01287FF499AE0B4B31463D
S31500004D9018802046FDF7A4FD94E6FCF7DBF93146C2
S31500004DA02046FCF7BBFF31462046FDF799FDA3E7F9
S31500004DB0BE240020EC240020EA240020BA2400208F
S31500004DC0F0B5294E044633888BB003F47F43B3F520
S31500004DD0006F06D013D9B3F5206F02D0B3F5406F3C
S31500004DE012D1224D00212046FDF77AFD2B88012B9A
S31500004DF011D021460020FDF7C9FF0BB0F0BD002BF6
S31500004E00EFD0B3F5C06FECD0184D2046FDF7C8FAC9
S31500004E102B88012BEDD18F23002732888DF80730A0
S31500004E2094F82430ADF810208DF804301049114A5A
S31500004E30114B128809881B88ADF81420ADF81210A2
S31500004E40ADF816300397ADF8087004F063F8034622
S31500004E5001A908200693FDF769FD214600202F8051
S31500004E60FDF794FF0BB0F0BDCC240020E824002011
S31500004E70CE240020BE240020C0240020F0B5224EFF
S31500004E80044633888BB003F47F43B3F5E06F0BD051
S31500004E901E4DFDF785FA2B88012B0CD021460020EC
S31500004EA0FDF774FF0BB0F0BD184D0021FDF718FD9E
S31500004EB02B88012BF2D18F23002732888DF80730FB
S31500004EC094F82430ADF810208DF804301049114ABA
S31500004ED0114B128809881B88ADF81420ADF8121002
S31500004EE0ADF816300397ADF8087004F013F80346D2
S31500004EF001A908200693FDF719FD214600202F8001
S31500004F00FDF744FF0BB0F0BDCC240020E8240020C0
S31500004F10CE240020BE240020C024002030B5B0F8E6
S31500004F2000C003460CF0600CBCF1200F14468BB099
S31500004F3002D0BCF1400F07D1052900F28A80DFE8D4
S31500004F4001F02E194C196F344FF08F0C92F8244053
S31500004F5000225968006804AB8DF807C003C3072018
S31500004F6001A98DF804400392ADF80820FDF7DEFC98
S31500004F700BB030BD00228F251868596894F824407C
S31500004F8004AB8DF8044003C3072001A90392ADF8D2
S31500004F9008208DF80750FDF7C9FC0BB030BD002383
S31500004FA02F49304A0B801380E2E700258F221868CC
S31500004FB0596894F824C004AB03C301A907208DF8EF
S31500004FC004C00395ADF808508DF80720FDF7AEFC38
S31500004FD021462846FDF7DAFECAE71868596804AB89
S31500004FE003C300212046FDF77BFC00258F2394F8A0
S31500004FF0242003958DF80420ADF808508DF807306D
S3150000500003F088FF034601A908200693FDF78EFCEE
S31500005010144B214628461D80FDF7B8FE0BB030BD67
S315000050201868596804AB03C300212046FDF758FCF5
S3150000503000258F220C49BDF81630086894F8241014
S315000050401B1A8DF804100393ADF808508DF807204D
S31500005050D6E7214607200BB0BDE83040FDF796BEE7
S31500005060B8240020E824002048210020F8B58B78D9
S315000050703B4F0370CA783B4E02F07F02C2700A6A49
S315000050808261CA6947F82320F25C012A5CD0054692
S3150000509008780C4601281BBF0221334A324A22F8FF
S315000050A01310138852889BB292B29A4215D1317866
S315000050B07378194342D0012200212B782B4FF254EA
S315000050C027F813104FF42A72294804F0E4FC2378D9
S315000050D0012B09D100263046F8BDFDF7A3FC0028B8
S315000050E0E5D040F2DC56F6E72878FCF71DFF0646C9
S315000050F00028F0D121462846FFF7ACFA2146287849
S31500005100FCF73AFF2878FDF7B5FA2878FFF77EFA1C
S3150000511040281DD02378012BDCD02A78304637F87A
S3150000512012309BB243F0010327F8123037F81230E1
S315000051309BB243F0020327F81230F8BD4FF4B47265
S315000051400C4804F0A8FCB6E740F2DD563046F8BD40
S315000051500A20FCF76DFF2878FDF7F8F9DAE700BFBB
S315000051607C2D00209C31002098310020EC2E002060
S31500005170F02E0020842D002070B5164A0378164DB7
S315000051800E4635F8131032F8132092B092B232B1AF
S3150000519035F813208DF8283093B2012B03D140F255
S315000051A0DC5012B070BD044601A8FDF7AFFB2078B5
S315000051B0FCF73AFB00F070002028F0D0EFD9302839
S315000051C0EDD1B1B22078A180FDF774FA002012B0BB
S315000051D070BD00BFEC2E0020983100202DE9F04173
S315000051E01A4E03781A4F0446904636F8132037F8BD
S315000051F0130092B080B238B10D4636F813108DF810
S3150000520028308BB2012B04D140F2DC5012B0BDE83D
S31500005210F08101A8FDF77AFB2078FCF705FB00F08A
S3150000522070002028F0D0EFD93028EDD1424629462B
S315000052302046FDF785FAD52805D0FF28E4D00020C2
S3150000524012B0BDE8F08140F2DD50DFE79831002072
S31500005250EC2E00202DE9F0411A4E03781A4F044631
S31500005260904636F8132037F8130092B080B238B162
S315000052700D4636F813108DF828308BB2012B04D169
S3150000528040F2DC5012B0BDE8F08101A8FDF73EFB0C
S315000052902078FCF7C9FA00F070002028F0D0EFD98A
S315000052A03028EDD1424629462046FDF721FAD52879
S315000052B005D0FF28E4D0002012B0BDE8F08140F20E
S315000052C0DD50DFE798310020EC2E0020F0B50446D3
S315000052D090F800C01C4F0D4637F81C00164680B2E9
S315000052E0022804BF03F07F03E37037F81C30174B26
S315000052F093B033F81C309BB233B137F81C308DF8BD
S3150000530028C09BB2012B03D140F2DC5013B0F0BD94
S3150000531001A8FDF7FBFA2078FCF786FA00F070008A
S315000053203028F1D1324629462046FDF755FA024685
S315000053300028EBD040F2DC5340F2DD50D52A18BFEE
S31500005340184613B0F0BD00BF98310020EC2E0020A7
S31500005350F8B5036A0D469978044601F07B01997009
S31500005360067866BB90F802C0C16908690CF00301B3
S31500005370521A2944C4E9031260B382B10026A37805
S3150000538003F00303013B22FA03F382689BB297689A
S31500005390006832462661B84780B9236A26789A782B
S315000053A042F080029A709EB994F802C00CF0030C89
S315000053B0BCF1020F17D000202A78DA70F8BDC16957
S315000053C0C0E903520869A0B12946002AE7D0D5E70B
S315000053D00020F8BD9A780CF0030C42F08002BCF174
S315000053E0020F9A70E7D12A88002042F47E42DA81C1
S315000053F0F8BD9A7842F080029A70F8BD40F2F9330F
S315000054002DE9F0470D4609780446CB4013F0010319
S3150000541001F5800218BF102302F58C5212020262B7
S315000054200122002103708378686962F30103AA6987
S315000054306062C4E90A12E561A3706B7823B902229F
S31500005440A37862F30103A370012195F90B00694B60
S31500005450420900F01F06203201FA06F695F80AC046
S3150000546043F82260BFF34F8FBFF36F8F624A00F19C
S31500005470C00652F826704FEA0C1C6FF3104742F82C
S3150000548026705E4E1F185FFA8CFC87F800C346F83C
S31500005490204095F9050095F804C0470900F01F0E55
S315000054A0203701FA0EFE43F827E0BFF34F8FBFF314
S315000054B06F8F00F1C00752F827E04FEA0C1C6FF31C
S315000054C0104E42F827E05FFA8CFC1F1887F800C3DD
S315000054D046F8204095F9070095F806C0470900F000
S315000054E01F0E203701FA0EFE43F827E0BFF34F8F59
S315000054F0BFF36F8F00F1C00752F827E04FEA0C1C8C
